13:35:48.668720 ARP, Ethernet (len 6), IPv4 (len 4), Request who-has 192.168.1.1 tell 192.168.1.117, length 28
	0x0000:  0001 0800 0604 0001 d053 490d abb7 c0a8  .........SI.....
	0x0010:  0175 0000 0000 0000 c0a8 0101            .u..........
13:35:48.776654 IP (tos 0x0, ttl 1, id 11702, offset 0, flags [none], proto UDP (17), length 201)
    192.168.1.117.65466 > 239.255.255.250.1900: [udp sum ok] UDP, length 173
	0x0000:  4500 00c9 2db6 0000 0111 d956 c0a8 0175  E...-......V...u
	0x0010:  efff fffa ffba 076c 00b5 03fe 4d2d 5345  .......l....M-SE
	0x0020:  4152 4348 202a 2048 5454 502f 312e 310d  ARCH.*.HTTP/1.1.
	0x0030:  0a48 4f53 543a 2032 3339 2e32 3535 2e32  .HOST:.239.255.2
	0x0040:  3535 2e32 3530 3a31 3930 300d 0a4d 414e  55.250:1900..MAN
	0x0050:  3a20 2273 7364 703a 6469 7363 6f76 6572  :."ssdp:discover
	0x0060:  220d 0a4d 583a 2031 0d0a 5354 3a20 7572  "..MX:.1..ST:.ur
	0x0070:  6e3a 6469 616c 2d6d 756c 7469 7363 7265  n:dial-multiscre
	0x0080:  656e 2d6f 7267 3a73 6572 7669 6365 3a64  en-org:service:d
	0x0090:  6961 6c3a 310d 0a55 5345 522d 4147 454e  ial:1..USER-AGEN
	0x00a0:  543a 2047 6f6f 676c 6520 4368 726f 6d65  T:.Google.Chrome
	0x00b0:  2f35 342e 302e 3238 3430 2e39 3920 5769  /54.0.2840.99.Wi
	0x00c0:  6e64 6f77 730d 0a0d 0a                   ndows....
13:35:49.487832 ARP, Ethernet (len 6), IPv4 (len 4), Request who-has 192.168.1.1 tell 192.168.1.110, length 28
	0x0000:  0001 0800 0604 0001 bc85 56de 2601 c0a8  ..........V.&...
	0x0010:  016e 0000 0000 0000 c0a8 0101            .n..........
13:35:49.488133 IP (tos 0x0, ttl 1, id 30031, offset 0, flags [none], proto UDP (17), length 56)
    192.168.17.35.64384 > 224.0.0.252.hostmon: [udp sum ok] UDP, length 28
	0x0000:  4500 0038 754f 0000 0111 919e c0a8 1123  E..8uO.........#
	0x0010:  e000 00fc fb80 14eb 0024 40be 9b3c 0000  .........$@..<..
	0x0020:  0001 0000 0000 0000 0a44 4543 2d50 4f53  .........DEC-POS
	0x0030:  4449 5000 0001 0001                      DIP.....
13:35:49.488777 IP (tos 0x0, ttl 1, id 30032, offset 0, flags [none], proto UDP (17), length 56)
    192.168.17.35.56180 > 224.0.0.252.hostmon: [udp sum ok] UDP, length 28
	0x0000:  4500 0038 7550 0000 0111 919d c0a8 1123  E..8uP.........#
	0x0010:  e000 00fc db74 14eb 0024 6f93 8c58 0000  .....t...$o..X..
	0x0020:  0001 0000 0000 0000 0a44 4543 2d50 4f53  .........DEC-POS
	0x0030:  4449 5000 001c 0001                      DIP.....
13:35:49.489134 IP (tos 0x0, ttl 1, id 30034, offset 0, flags [none], proto UDP (17), length 56)
    192.168.17.35.63056 > 224.0.0.252.hostmon: [udp sum ok] UDP, length 28
	0x0000:  4500 0038 7552 0000 0111 919b c0a8 1123  E..8uR.........#
	0x0010:  e000 00fc f650 14eb 0024 2d8b 32ff 0000  .....P...$-.2...
	0x0020:  0001 0000 0000 0000 0a64 6563 2d70 6f73  .........dec-pos
	0x0030:  6469 7000 0001 0001                      dip.....
13:35:49.489480 IP (tos 0x0, ttl 1, id 30035, offset 0, flags [none], proto UDP (17), length 56)
    192.168.17.35.57658 > 224.0.0.252.hostmon: [udp sum ok] UDP, length 28
	0x0000:  4500 0038 7553 0000 0111 919a c0a8 1123  E..8uS.........#
	0x0010:  e000 00fc e13a 14eb 0024 a6a3 cee1 0000  .....:...$......
	0x0020:  0001 0000 0000 0000 0a64 6563 2d70 6f73  .........dec-pos
	0x0030:  6469 7000 001c 0001                      dip.....
13:35:49.489837 IP (tos 0x0, ttl 1, id 30036, offset 0, flags [none], proto UDP (17), length 56)
    192.168.17.35.61537 > 224.0.0.252.hostmon: [udp sum ok] UDP, length 28
	0x0000:  4500 0038 7554 0000 0111 9199 c0a8 1123  E..8uT.........#
	0x0010:  e000 00fc f061 14eb 0024 890e dd6a 0000  .....a...$...j..
	0x0020:  0001 0000 0000 0000 0a64 6563 2d70 6f73  .........dec-pos
	0x0030:  6469 7000 0001 0001                      dip.....
13:35:49.490163 IP (tos 0x0, ttl 1, id 30037, offset 0, flags [none], proto UDP (17), length 56)
    192.168.17.35.49665 > 224.0.0.252.hostmon: [udp sum ok] UDP, length 28
	0x0000:  4500 0038 7555 0000 0111 9198 c0a8 1123  E..8uU.........#
	0x0010:  e000 00fc c201 14eb 0024 cf07 c5b6 0000  .........$......
	0x0020:  0001 0000 0000 0000 0a64 6563 2d70 6f73  .........dec-pos
	0x0030:  6469 7000 001c 0001                      dip.....
13:35:49.490516 IP (tos 0x0, ttl 1, id 30047, offset 0, flags [none], proto UDP (17), length 56)
    192.168.17.35.52927 > 224.0.0.252.hostmon: [udp sum ok] UDP, length 28
	0x0000:  4500 0038 755f 0000 0111 918e c0a8 1123  E..8u_.........#
	0x0010:  e000 00fc cebf 14eb 0024 34f3 d3c8 0000  .........$4.....
	0x0020:  0001 0000 0000 0000 0a44 4543 2d50 4f53  .........DEC-POS
	0x0030:  4449 5000 0001 0001                      DIP.....
13:35:49.490849 IP (tos 0x0, ttl 1, id 30048, offset 0, flags [none], proto UDP (17), length 56)
    192.168.17.35.63704 > 224.0.0.252.hostmon: [udp sum ok] UDP, length 28
	0x0000:  4500 0038 7560 0000 0111 918d c0a8 1123  E..8u`.........#
	0x0010:  e000 00fc f8d8 14eb 0024 3cc5 a1c2 0000  .........$<.....
	0x0020:  0001 0000 0000 0000 0a44 4543 2d50 4f53  .........DEC-POS
	0x0030:  4449 5000 001c 0001                      DIP.....
13:35:49.491234 IP (tos 0x0, ttl 1, id 30053, offset 0, flags [none], proto UDP (17), length 56)
    192.168.17.35.63845 > 224.0.0.252.hostmon: [udp sum ok] UDP, length 28
	0x0000:  4500 0038 7565 0000 0111 9188 c0a8 1123  E..8ue.........#
	0x0010:  e000 00fc f965 14eb 0024 49db 943a 0000  .....e...$I..:..
	0x0020:  0001 0000 0000 0000 0a44 4543 2d50 4f53  .........DEC-POS
	0x0030:  4449 5000 0001 0001                      DIP.....
13:35:49.491641 IP (tos 0x0, ttl 1, id 30054, offset 0, flags [none], proto UDP (17), length 56)
    192.168.17.35.50396 > 224.0.0.252.hostmon: [udp sum ok] UDP, length 28
	0x0000:  4500 0038 7566 0000 0111 9187 c0a8 1123  E..8uf.........#
	0x0010:  e000 00fc c4dc 14eb 0024 6d59 a52a 0000  .........$mY.*..
	0x0020:  0001 0000 0000 0000 0a44 4543 2d50 4f53  .........DEC-POS
	0x0030:  4449 5000 001c 0001                      DIP.....
13:35:49.598683 ARP, Ethernet (len 6), IPv4 (len 4), Request who-has 192.168.1.1 tell 192.168.1.117, length 28
	0x0000:  0001 0800 0604 0001 d053 490d abb7 c0a8  .........SI.....
	0x0010:  0175 0000 0000 0000 c0a8 0101            .u..........
13:35:49.808021 ARP, Ethernet (len 6), IPv4 (len 4), Request who-has 192.168.1.1 tell 192.168.1.138, length 28
	0x0000:  0001 0800 0604 0001 0026 c77d 5780 c0a8  .........&.}W...
	0x0010:  018a 0000 0000 0000 c0a8 0101            ............
13:35:49.986527 IP (tos 0x0, ttl 64, id 30937, offset 0, flags [none], proto UDP (17), length 50)
    192.168.1.129.55377 > ns.lucky.net.domain: [udp sum ok] 30401+ A? host. (22)
	0x0000:  4500 0032 78d9 0000 4011 bc92 c0a8 0181  E..2x...@.......
	0x0010:  c1c1 c164 d851 0035 001e 823b 76c1 0100  ...d.Q.5...;v...
	0x0020:  0001 0000 0000 0000 0468 6f73 7400 0001  .........host...
	0x0030:  0001                                     ..
13:35:50.252042 IP (tos 0x0, ttl 56, id 49831, offset 0, flags [none], proto UDP (17), length 294)
    ns.lucky.net.domain > 192.168.1.129.55377: [udp sum ok] 30401- q: A? host. 0/4/8 ns: host. [1d18h29m4s] NS b.nic.host., host. [1d18h29m4s] NS a.nic.host., host. [1d18h29m4s] NS c.nic.host., host. [1d18h29m4s] NS d.nic.host. ar: a.nic.host. [1d18h29m4s] A 194.169.218.53, b.nic.host. [1d18h29m4s] A 185.24.64.53, c.nic.host. [1d18h29m4s] A 185.38.99.2, d.nic.host. [1d18h29m4s] A 108.59.161.2, a.nic.host. [1d18h29m4s] AAAA 2001:67c:13cc::1:53, b.nic.host. [1d18h29m4s] AAAA 2a04:2b00:13cc::1:53, c.nic.host. [1d18h29m4s] AAAA 2a02:e180:3::2, d.nic.host. [1d18h29m4s] AAAA 2a02:e180:4::2 (266)
	0x0000:  4500 0126 c2a7 0000 3811 79d0 c1c1 c164  E..&....8.y....d
	0x0010:  c0a8 0181 0035 d851 0112 0ea0 76c1 8100  .....5.Q....v...
	0x0020:  0001 0000 0004 0008 0468 6f73 7400 0001  .........host...
	0x0030:  0001 c00c 0002 0001 0002 5570 0008 0162  ..........Up...b
	0x0040:  036e 6963 c00c c00c 0002 0001 0002 5570  .nic..........Up
	0x0050:  0004 0161 c024 c00c 0002 0001 0002 5570  ...a.$........Up
	0x0060:  0004 0163 c024 c00c 0002 0001 0002 5570  ...c.$........Up
	0x0070:  0004 0164 c024 c036 0001 0001 0002 5570  ...d.$.6......Up
	0x0080:  0004 c2a9 da35 c022 0001 0001 0002 5570  .....5."......Up
	0x0090:  0004 b918 4035 c046 0001 0001 0002 5570  ....@5.F......Up
	0x00a0:  0004 b926 6302 c056 0001 0001 0002 5570  ...&c..V......Up
	0x00b0:  0004 6c3b a102 c036 001c 0001 0002 5570  ..l;...6......Up
	0x00c0:  0010 2001 067c 13cc 0000 0000 0000 0001  .....|..........
	0x00d0:  0053 c022 001c 0001 0002 5570 0010 2a04  .S."......Up..*.
	0x00e0:  2b00 13cc 0000 0000 0000 0001 0053 c046  +............S.F
	0x00f0:  001c 0001 0002 5570 0010 2a02 e180 0003  ......Up..*.....
	0x0100:  0000 0000 0000 0000 0002 c056 001c 0001  ...........V....
	0x0110:  0002 5570 0010 2a02 e180 0004 0000 0000  ..Up..*.........
	0x0120:  0000 0000 0002                           ......
13:35:50.252597 IP (tos 0x0, ttl 64, id 30978, offset 0, flags [none], proto UDP (17), length 50)
    192.168.1.129.40147 > ns.lucky.net.domain: [udp sum ok] 239+ AAAA? host. (22)
	0x0000:  4500 0032 7902 0000 4011 bc69 c0a8 0181  E..2y...@..i....
	0x0010:  c1c1 c164 9cd3 0035 001e 3371 00ef 0100  ...d...5..3q....
	0x0020:  0001 0000 0000 0000 0468 6f73 7400 001c  .........host...
	0x0030:  0001                                     ..
13:35:50.401516 IP (tos 0x0, ttl 56, id 49832, offset 0, flags [none], proto UDP (17), length 294)
    ns.lucky.net.domain > 192.168.1.129.40147: [udp sum ok] 239- q: AAAA? host. 0/4/8 ns: host. [1d18h29m4s] NS a.nic.host., host. [1d18h29m4s] NS c.nic.host., host. [1d18h29m4s] NS d.nic.host., host. [1d18h29m4s] NS b.nic.host. ar: a.nic.host. [1d18h29m4s] A 194.169.218.53, b.nic.host. [1d18h29m4s] A 185.24.64.53, c.nic.host. [1d18h29m4s] A 185.38.99.2, d.nic.host. [1d18h29m4s] A 108.59.161.2, a.nic.host. [1d18h29m4s] AAAA 2001:67c:13cc::1:53, b.nic.host. [1d18h29m4s] AAAA 2a04:2b00:13cc::1:53, c.nic.host. [1d18h29m4s] AAAA 2a02:e180:3::2, d.nic.host. [1d18h29m4s] AAAA 2a02:e180:4::2 (266)
	0x0000:  4500 0126 c2a8 0000 3811 79cf c1c1 c164  E..&....8.y....d
	0x0010:  c0a8 0181 0035 9cd3 0112 bfd5 00ef 8100  .....5..........
	0x0020:  0001 0000 0004 0008 0468 6f73 7400 001c  .........host...
	0x0030:  0001 c00c 0002 0001 0002 5570 0008 0161  ..........Up...a
	0x0040:  036e 6963 c00c c00c 0002 0001 0002 5570  .nic..........Up
	0x0050:  0004 0163 c024 c00c 0002 0001 0002 5570  ...c.$........Up
	0x0060:  0004 0164 c024 c00c 0002 0001 0002 5570  ...d.$........Up
	0x0070:  0004 0162 c024 c022 0001 0001 0002 5570  ...b.$."......Up
	0x0080:  0004 c2a9 da35 c056 0001 0001 0002 5570  .....5.V......Up
	0x0090:  0004 b918 4035 c036 0001 0001 0002 5570  ....@5.6......Up
	0x00a0:  0004 b926 6302 c046 0001 0001 0002 5570  ...&c..F......Up
	0x00b0:  0004 6c3b a102 c022 001c 0001 0002 5570  ..l;..."......Up
	0x00c0:  0010 2001 067c 13cc 0000 0000 0000 0001  .....|..........
	0x00d0:  0053 c056 001c 0001 0002 5570 0010 2a04  .S.V......Up..*.
	0x00e0:  2b00 13cc 0000 0000 0000 0001 0053 c036  +............S.6
	0x00f0:  001c 0001 0002 5570 0010 2a02 e180 0003  ......Up..*.....
	0x0100:  0000 0000 0000 0000 0002 c046 001c 0001  ...........F....
	0x0110:  0002 5570 0010 2a02 e180 0004 0000 0000  ..Up..*.........
	0x0120:  0000 0000 0002                           ......
13:35:50.401844 IP (tos 0x0, ttl 64, id 30981, offset 0, flags [none], proto UDP (17), length 50)
    192.168.1.129.53314 > ns.lucky.net.domain: [udp sum ok] 24236+ MX? host. (22)
	0x0000:  4500 0032 7905 0000 4011 bc66 c0a8 0181  E..2y...@..f....
	0x0010:  c1c1 c164 d042 0035 001e a251 5eac 0100  ...d.B.5...Q^...
	0x0020:  0001 0000 0000 0000 0468 6f73 7400 000f  .........host...
	0x0030:  0001                                     ..
13:35:50.496301 IP (tos 0x0, ttl 56, id 49833, offset 0, flags [none], proto UDP (17), length 294)
    ns.lucky.net.domain > 192.168.1.129.53314: [udp sum ok] 24236- q: MX? host. 0/4/8 ns: host. [1d18h29m3s] NS d.nic.host., host. [1d18h29m3s] NS b.nic.host., host. [1d18h29m3s] NS c.nic.host., host. [1d18h29m3s] NS a.nic.host. ar: a.nic.host. [1d18h29m3s] A 194.169.218.53, b.nic.host. [1d18h29m3s] A 185.24.64.53, c.nic.host. [1d18h29m3s] A 185.38.99.2, d.nic.host. [1d18h29m3s] A 108.59.161.2, a.nic.host. [1d18h29m3s] AAAA 2001:67c:13cc::1:53, b.nic.host. [1d18h29m3s] AAAA 2a04:2b00:13cc::1:53, c.nic.host. [1d18h29m3s] AAAA 2a02:e180:3::2, d.nic.host. [1d18h29m3s] AAAA 2a02:e180:4::2 (266)
	0x0000:  4500 0126 c2a9 0000 3811 79ce c1c1 c164  E..&....8.y....d
	0x0010:  c0a8 0181 0035 d042 0112 2ec2 5eac 8100  .....5.B....^...
	0x0020:  0001 0000 0004 0008 0468 6f73 7400 000f  .........host...
	0x0030:  0001 c00c 0002 0001 0002 556f 0008 0164  ..........Uo...d
	0x0040:  036e 6963 c00c c00c 0002 0001 0002 556f  .nic..........Uo
	0x0050:  0004 0162 c024 c00c 0002 0001 0002 556f  ...b.$........Uo
	0x0060:  0004 0163 c024 c00c 0002 0001 0002 556f  ...c.$........Uo
	0x0070:  0004 0161 c024 c056 0001 0001 0002 556f  ...a.$.V......Uo
	0x0080:  0004 c2a9 da35 c036 0001 0001 0002 556f  .....5.6......Uo
	0x0090:  0004 b918 4035 c046 0001 0001 0002 556f  ....@5.F......Uo
	0x00a0:  0004 b926 6302 c022 0001 0001 0002 556f  ...&c.."......Uo
	0x00b0:  0004 6c3b a102 c056 001c 0001 0002 556f  ..l;...V......Uo
	0x00c0:  0010 2001 067c 13cc 0000 0000 0000 0001  .....|..........
	0x00d0:  0053 c036 001c 0001 0002 556f 0010 2a04  .S.6......Uo..*.
	0x00e0:  2b00 13cc 0000 0000 0000 0001 0053 c046  +............S.F
	0x00f0:  001c 0001 0002 556f 0010 2a02 e180 0003  ......Uo..*.....
	0x0100:  0000 0000 0000 0000 0002 c022 001c 0001  ..........."....
	0x0110:  0002 556f 0010 2a02 e180 0004 0000 0000  ..Uo..*.........
	0x0120:  0000 0000 0002                           ......
13:35:51.331072 IP (tos 0x0, ttl 1, id 11709, offset 0, flags [none], proto UDP (17), length 201)
    192.168.1.117.65466 > 239.255.255.250.1900: [udp sum ok] UDP, length 173
	0x0000:  4500 00c9 2dbd 0000 0111 d94f c0a8 0175  E...-......O...u
	0x0010:  efff fffa ffba 076c 00b5 03fe 4d2d 5345  .......l....M-SE
	0x0020:  4152 4348 202a 2048 5454 502f 312e 310d  ARCH.*.HTTP/1.1.
	0x0030:  0a48 4f53 543a 2032 3339 2e32 3535 2e32  .HOST:.239.255.2
	0x0040:  3535 2e32 3530 3a31 3930 300d 0a4d 414e  55.250:1900..MAN
	0x0050:  3a20 2273 7364 703a 6469 7363 6f76 6572  :."ssdp:discover
	0x0060:  220d 0a4d 583a 2031 0d0a 5354 3a20 7572  "..MX:.1..ST:.ur
	0x0070:  6e3a 6469 616c 2d6d 756c 7469 7363 7265  n:dial-multiscre
	0x0080:  656e 2d6f 7267 3a73 6572 7669 6365 3a64  en-org:service:d
	0x0090:  6961 6c3a 310d 0a55 5345 522d 4147 454e  ial:1..USER-AGEN
	0x00a0:  543a 2047 6f6f 676c 6520 4368 726f 6d65  T:.Google.Chrome
	0x00b0:  2f35 342e 302e 3238 3430 2e39 3920 5769  /54.0.2840.99.Wi
	0x00c0:  6e64 6f77 730d 0a0d 0a                   ndows....
13:35:51.331415 ARP, Ethernet (len 6), IPv4 (len 4), Request who-has 192.168.1.1 tell 192.168.1.117, length 28
	0x0000:  0001 0800 0604 0001 d053 490d abb7 c0a8  .........SI.....
	0x0010:  0175 0000 0000 0000 c0a8 0101            .u..........
13:35:51.332232 IP (tos 0x0, ttl 1, id 11719, offset 0, flags [none], proto UDP (17), length 201)
    192.168.1.117.65466 > 239.255.255.250.1900: [udp sum ok] UDP, length 173
	0x0000:  4500 00c9 2dc7 0000 0111 d945 c0a8 0175  E...-......E...u
	0x0010:  efff fffa ffba 076c 00b5 03fe 4d2d 5345  .......l....M-SE
	0x0020:  4152 4348 202a 2048 5454 502f 312e 310d  ARCH.*.HTTP/1.1.
	0x0030:  0a48 4f53 543a 2032 3339 2e32 3535 2e32  .HOST:.239.255.2
	0x0040:  3535 2e32 3530 3a31 3930 300d 0a4d 414e  55.250:1900..MAN
	0x0050:  3a20 2273 7364 703a 6469 7363 6f76 6572  :."ssdp:discover
	0x0060:  220d 0a4d 583a 2031 0d0a 5354 3a20 7572  "..MX:.1..ST:.ur
	0x0070:  6e3a 6469 616c 2d6d 756c 7469 7363 7265  n:dial-multiscre
	0x0080:  656e 2d6f 7267 3a73 6572 7669 6365 3a64  en-org:service:d
	0x0090:  6961 6c3a 310d 0a55 5345 522d 4147 454e  ial:1..USER-AGEN
	0x00a0:  543a 2047 6f6f 676c 6520 4368 726f 6d65  T:.Google.Chrome
	0x00b0:  2f35 342e 302e 3238 3430 2e39 3920 5769  /54.0.2840.99.Wi
	0x00c0:  6e64 6f77 730d 0a0d 0a                   ndows....
13:35:51.741200 ARP, Ethernet (len 6), IPv4 (len 4), Request who-has 192.168.1.1 tell 192.168.1.117, length 28
	0x0000:  0001 0800 0604 0001 d053 490d abb7 c0a8  .........SI.....
	0x0010:  0175 0000 0000 0000 c0a8 0101            .u..........
13:35:51.854067 IP (tos 0x0, ttl 1, id 11772, offset 0, flags [none], proto UDP (17), length 201)
    192.168.1.117.65466 > 239.255.255.250.1900: [udp sum ok] UDP, length 173
	0x0000:  4500 00c9 2dfc 0000 0111 d910 c0a8 0175  E...-..........u
	0x0010:  efff fffa ffba 076c 00b5 03fe 4d2d 5345  .......l....M-SE
	0x0020:  4152 4348 202a 2048 5454 502f 312e 310d  ARCH.*.HTTP/1.1.
	0x0030:  0a48 4f53 543a 2032 3339 2e32 3535 2e32  .HOST:.239.255.2
	0x0040:  3535 2e32 3530 3a31 3930 300d 0a4d 414e  55.250:1900..MAN
	0x0050:  3a20 2273 7364 703a 6469 7363 6f76 6572  :."ssdp:discover
	0x0060:  220d 0a4d 583a 2031 0d0a 5354 3a20 7572  "..MX:.1..ST:.ur
	0x0070:  6e3a 6469 616c 2d6d 756c 7469 7363 7265  n:dial-multiscre
	0x0080:  656e 2d6f 7267 3a73 6572 7669 6365 3a64  en-org:service:d
	0x0090:  6961 6c3a 310d 0a55 5345 522d 4147 454e  ial:1..USER-AGEN
	0x00a0:  543a 2047 6f6f 676c 6520 4368 726f 6d65  T:.Google.Chrome
	0x00b0:  2f35 342e 302e 3238 3430 2e39 3920 5769  /54.0.2840.99.Wi
	0x00c0:  6e64 6f77 730d 0a0d 0a                   ndows....
13:35:52.867648 ARP, Ethernet (len 6), IPv4 (len 4), Request who-has 192.168.1.1 tell 192.168.1.117, length 28
	0x0000:  0001 0800 0604 0001 d053 490d abb7 c0a8  .........SI.....
	0x0010:  0175 0000 0000 0000 c0a8 0101            .u..........
13:35:54.505274 ARP, Ethernet (len 6), IPv4 (len 4), Request who-has 192.168.1.1 tell 192.168.1.118, length 28
	0x0000:  0001 0800 0604 0001 0024 d742 6fcc c0a8  .........$.Bo...
	0x0010:  0176 0000 0000 0000 c0a8 0101            .v..........
13:35:55.012288 ARP, Ethernet (len 6), IPv4 (len 4), Request who-has 192.168.1.129 tell 192.168.1.1, length 28
	0x0000:  0001 0800 0604 0001 c46e 1fe1 a314 c0a8  .........n......
	0x0010:  0101 0000 0000 0000 c0a8 0181            ............
13:35:55.012313 ARP, Ethernet (len 6), IPv4 (len 4), Reply 192.168.1.129 is-at 0c:d2:92:a9:f4:4d (oui Unknown), length 28
	0x0000:  0001 0800 0604 0002 0cd2 92a9 f44d c0a8  .............M..
	0x0010:  0181 c46e 1fe1 a314 c0a8 0101            ...n........
13:35:57.782714 IP (tos 0x0, ttl 255, id 23222, offset 0, flags [none], proto UDP (17), length 239)
    192.168.1.143.mdns > 224.0.0.251.mdns: [udp sum ok] 0*- [0q] 2/0/3 A.C.9.7.6.D.4.D.3.2.E.2.A.5.0.0.0.0.0.0.0.0.0.0.0.0.0.0.0.8.E.F.ip6.arpa. (Cache flush) [2m] PTR Temnuu.local., 143.1.168.192.in-addr.arpa. (Cache flush) [2m] PTR Temnuu.local. ar: A.C.9.7.6.D.4.D.3.2.E.2.A.5.0.0.0.0.0.0.0.0.0.0.0.0.0.0.0.8.E.F.ip6.arpa. (Cache flush) [2m] NSEC, 143.1.168.192.in-addr.arpa. (Cache flush) [2m] NSEC, . OPT UDPsize=1440 (211)
	0x0000:  4500 00ef 5ab6 0000 ff11 bd14 c0a8 018f  E...Z...........
	0x0010:  e000 00fb 14e9 14e9 00db bae1 0000 8400  ................
	0x0020:  0000 0002 0000 0003 0141 0143 0139 0137  .........A.C.9.7
	0x0030:  0136 0144 0134 0144 0133 0132 0145 0132  .6.D.4.D.3.2.E.2
	0x0040:  0141 0135 0130 0130 0130 0130 0130 0130  .A.5.0.0.0.0.0.0
	0x0050:  0130 0130 0130 0130 0130 0130 0130 0130  .0.0.0.0.0.0.0.0
	0x0060:  0130 0138 0145 0146 0369 7036 0461 7270  .0.8.E.F.ip6.arp
	0x0070:  6100 000c 8001 0000 0078 000e 0654 656d  a........x...Tem
	0x0080:  6e75 7505 6c6f 6361 6c00 0331 3433 0131  nuu.local..143.1
	0x0090:  0331 3638 0331 3932 0769 6e2d 6164 6472  .168.192.in-addr
	0x00a0:  c050 000c 8001 0000 0078 0002 c060 c00c  .P.......x...`..
	0x00b0:  002f 8001 0000 0078 0006 c00c 0002 0008  ./.....x........
	0x00c0:  c06e 002f 8001 0000 0078 0006 c06e 0002  .n./.....x...n..
	0x00d0:  0008 0000 2905 a000 0011 9400 1200 0400  ....)...........
	0x00e0:  0e00 f322 6d52 000f 9c00 6d52 000f 9c    ..."mR....mR...
13:35:57.783804 IP6 (flowlabel 0xe62da, hlim 255, next-header UDP (17) payload length: 219) fe80::5a:2e23:d4d6:79ca.mdns > ff02::fb.mdns: [udp sum ok] 0*- [0q] 2/0/3 A.C.9.7.6.D.4.D.3.2.E.2.A.5.0.0.0.0.0.0.0.0.0.0.0.0.0.0.0.8.E.F.ip6.arpa. (Cache flush) [2m] PTR Temnuu.local., 143.1.168.192.in-addr.arpa. (Cache flush) [2m] PTR Temnuu.local. ar: A.C.9.7.6.D.4.D.3.2.E.2.A.5.0.0.0.0.0.0.0.0.0.0.0.0.0.0.0.8.E.F.ip6.arpa. (Cache flush) [2m] NSEC, 143.1.168.192.in-addr.arpa. (Cache flush) [2m] NSEC, . OPT UDPsize=1440 (211)
	0x0000:  600e 62da 00db 11ff fe80 0000 0000 0000  `.b.............
	0x0010:  005a 2e23 d4d6 79ca ff02 0000 0000 0000  .Z.#..y.........
	0x0020:  0000 0000 0000 00fb 14e9 14e9 00db e277  ...............w
	0x0030:  0000 8400 0000 0002 0000 0003 0141 0143  .............A.C
	0x0040:  0139 0137 0136 0144 0134 0144 0133 0132  .9.7.6.D.4.D.3.2
	0x0050:  0145 0132 0141 0135 0130 0130 0130 0130  .E.2.A.5.0.0.0.0
	0x0060:  0130 0130 0130 0130 0130 0130 0130 0130  .0.0.0.0.0.0.0.0
	0x0070:  0130 0130 0130 0138 0145 0146 0369 7036  .0.0.0.8.E.F.ip6
	0x0080:  0461 7270 6100 000c 8001 0000 0078 000e  .arpa........x..
	0x0090:  0654 656d 6e75 7505 6c6f 6361 6c00 0331  .Temnuu.local..1
	0x00a0:  3433 0131 0331 3638 0331 3932 0769 6e2d  43.1.168.192.in-
	0x00b0:  6164 6472 c050 000c 8001 0000 0078 0002  addr.P.......x..
	0x00c0:  c060 c00c 002f 8001 0000 0078 0006 c00c  .`.../.....x....
	0x00d0:  0002 0008 c06e 002f 8001 0000 0078 0006  .....n./.....x..
	0x00e0:  c06e 0002 0008 0000 2905 a000 0011 9400  .n......).......
	0x00f0:  1200 0400 0e00 f322 6d52 000f 9c00 6d52  ......."mR....mR
	0x0100:  000f 9c                                  ...
13:35:57.784183 ARP, Ethernet (len 6), IPv4 (len 4), Request who-has bitch.stu tell 192.168.1.102, length 28
	0x0000:  0001 0800 0604 0001 dca9 7155 469b c0a8  ..........qUF...
	0x0010:  0166 0000 0000 0000 c0a8 0001            .f..........
13:35:57.884363 IP (tos 0x0, ttl 1, id 47350, offset 0, flags [none], proto IGMP (2), length 32, options (RA))
    192.168.1.143 > all-routers.mcast.net: igmp leave 224.0.0.251
	0x0000:  4600 0020 b8f6 0000 0102 c9a7 c0a8 018f  F...............
	0x0010:  e000 0002 9404 0000 1700 0804 e000 00fb  ................
13:35:57.884761 IP (tos 0x0, ttl 1, id 41947, offset 0, flags [none], proto IGMP (2), length 32, options (RA))
    192.168.1.143 > 224.0.0.251: igmp v2 report 224.0.0.251
	0x0000:  4600 0020 a3db 0000 0102 ddc9 c0a8 018f  F...............
	0x0010:  e000 00fb 9404 0000 1600 0904 e000 00fb  ................
13:35:57.986863 IP (tos 0x0, ttl 255, id 28499, offset 0, flags [none], proto UDP (17), length 131)
    192.168.1.143.mdns > 224.0.0.251.mdns: [udp sum ok] 0 [2n] [1au] ANY (QU)? Temnuu.local. ns: Temnuu.local. [2m] AAAA fe80::5a:2e23:d4d6:79ca, Temnuu.local. [2m] A 192.168.1.143 ar: . OPT UDPsize=1440 (103)
	0x0000:  4500 0083 6f53 0000 ff11 a8e3 c0a8 018f  E...oS..........
	0x0010:  e000 00fb 14e9 14e9 006f dfe6 0000 0000  .........o......
	0x0020:  0001 0000 0002 0001 0654 656d 6e75 7505  .........Temnuu.
	0x0030:  6c6f 6361 6c00 00ff 8001 c00c 001c 0001  local...........
	0x0040:  0000 0078 0010 fe80 0000 0000 0000 005a  ...x...........Z
	0x0050:  2e23 d4d6 79ca c00c 0001 0001 0000 0078  .#..y..........x
	0x0060:  0004 c0a8 018f 0000 2905 a000 0011 9400  ........).......
	0x0070:  1200 0400 0e00 f322 6d52 000f 9c00 6d52  ......."mR....mR
	0x0080:  000f 9c                                  ...
13:35:57.987326 IP6 (flowlabel 0xe62da, hlim 255, next-header UDP (17) payload length: 111) fe80::5a:2e23:d4d6:79ca.mdns > ff02::fb.mdns: [udp sum ok] 0 [2n] [1au] ANY (QU)? Temnuu.local. ns: Temnuu.local. [2m] AAAA fe80::5a:2e23:d4d6:79ca, Temnuu.local. [2m] A 192.168.1.143 ar: . OPT UDPsize=1440 (103)
	0x0000:  600e 62da 006f 11ff fe80 0000 0000 0000  `.b..o..........
	0x0010:  005a 2e23 d4d6 79ca ff02 0000 0000 0000  .Z.#..y.........
	0x0020:  0000 0000 0000 00fb 14e9 14e9 006f 077d  .............o.}
	0x0030:  0000 0000 0001 0000 0002 0001 0654 656d  .............Tem
	0x0040:  6e75 7505 6c6f 6361 6c00 00ff 8001 c00c  nuu.local.......
	0x0050:  001c 0001 0000 0078 0010 fe80 0000 0000  .......x........
	0x0060:  0000 005a 2e23 d4d6 79ca c00c 0001 0001  ...Z.#..y.......
	0x0070:  0000 0078 0004 c0a8 018f 0000 2905 a000  ...x........)...
	0x0080:  0011 9400 1200 0400 0e00 f322 6d52 000f  ..........."mR..
	0x0090:  9c00 6d52 000f 9c                        ..mR...
13:35:58.706585 ARP, Ethernet (len 6), IPv4 (len 4), Request who-has bitch.stu tell 192.168.1.102, length 28
	0x0000:  0001 0800 0604 0001 dca9 7155 469b c0a8  ..........qUF...
	0x0010:  0166 0000 0000 0000 c0a8 0001            .f..........
13:35:59.533111 ARP, Ethernet (len 6), IPv4 (len 4), Request who-has 192.168.1.1 tell 192.168.1.110, length 28
	0x0000:  0001 0800 0604 0001 bc85 56de 2601 c0a8  ..........V.&...
	0x0010:  016e 0000 0000 0000 c0a8 0101            .n..........
13:35:59.736647 ARP, Ethernet (len 6), IPv4 (len 4), Request who-has bitch.stu tell 192.168.1.102, length 28
	0x0000:  0001 0800 0604 0001 dca9 7155 469b c0a8  ..........qUF...
	0x0010:  0166 0000 0000 0000 c0a8 0001            .f..........
13:35:59.831034 ARP, Ethernet (len 6), IPv4 (len 4), Request who-has 192.168.1.1 tell 192.168.1.138, length 28
	0x0000:  0001 0800 0604 0001 0026 c77d 5780 c0a8  .........&.}W...
	0x0010:  018a 0000 0000 0000 c0a8 0101            ............
13:35:59.932811 IP (tos 0x0, ttl 4, id 0, offset 0, flags [DF], proto UDP (17), length 292)
    192.168.1.1.48871 > 239.255.255.250.1900: [udp sum ok] UDP, length 264
	0x0000:  4500 0124 0000 4000 0411 c425 c0a8 0101  E..$..@....%....
	0x0010:  efff fffa bee7 076c 0110 991f 4e4f 5449  .......l....NOTI
	0x0020:  4659 202a 2048 5454 502f 312e 310d 0a48  FY.*.HTTP/1.1..H
	0x0030:  4f53 543a 2032 3339 2e32 3535 2e32 3535  OST:.239.255.255
	0x0040:  2e32 3530 3a31 3930 300d 0a43 4143 4845  .250:1900..CACHE
	0x0050:  2d43 4f4e 5452 4f4c 3a20 6d61 782d 6167  -CONTROL:.max-ag
	0x0060:  653d 3130 300d 0a4c 4f43 4154 494f 4e3a  e=100..LOCATION:
	0x0070:  2068 7474 703a 2f2f 3139 322e 3136 382e  .http://192.168.
	0x0080:  312e 313a 3139 3030 2f69 6764 2e78 6d6c  1.1:1900/igd.xml
	0x0090:  0d0a 4e54 3a20 7570 6e70 3a72 6f6f 7464  ..NT:.upnp:rootd
	0x00a0:  6576 6963 650d 0a4e 5453 3a20 7373 6470  evice..NTS:.ssdp
	0x00b0:  3a61 6c69 7665 0d0a 5345 5256 4552 3a20  :alive..SERVER:.
	0x00c0:  6970 6f73 2f37 2e30 2055 506e 502f 312e  ipos/7.0.UPnP/1.
	0x00d0:  3020 544c 2d57 5237 3430 4e2f 342e 300d  0.TL-WR740N/4.0.
	0x00e0:  0a55 534e 3a20 7575 6964 3a30 3630 6237  .USN:.uuid:060b7
	0x00f0:  3335 332d 6663 6136 2d34 3037 302d 3835  353-fca6-4070-85
	0x0100:  6634 2d31 6662 6662 3961 6464 3632 633a  f4-1fbfb9add62c:
	0x0110:  3a75 706e 703a 726f 6f74 6465 7669 6365  :upnp:rootdevice
	0x0120:  0d0a 0d0a                                ....
13:36:00.035788 IP (tos 0x0, ttl 4, id 0, offset 0, flags [DF], proto UDP (17), length 301)
    192.168.1.1.48871 > 239.255.255.250.1900: [udp sum ok] UDP, length 273
	0x0000:  4500 012d 0000 4000 0411 c41c c0a8 0101  E..-..@.........
	0x0010:  efff fffa bee7 076c 0119 d41a 4e4f 5449  .......l....NOTI
	0x0020:  4659 202a 2048 5454 502f 312e 310d 0a48  FY.*.HTTP/1.1..H
	0x0030:  4f53 543a 2032 3339 2e32 3535 2e32 3535  OST:.239.255.255
	0x0040:  2e32 3530 3a31 3930 300d 0a43 4143 4845  .250:1900..CACHE
	0x0050:  2d43 4f4e 5452 4f4c 3a20 6d61 782d 6167  -CONTROL:.max-ag
	0x0060:  653d 3130 300d 0a4c 4f43 4154 494f 4e3a  e=100..LOCATION:
	0x0070:  2068 7474 703a 2f2f 3139 322e 3136 382e  .http://192.168.
	0x0080:  312e 313a 3139 3030 2f69 6764 2e78 6d6c  1.1:1900/igd.xml
	0x0090:  0d0a 4e54 3a20 7575 6964 3a30 3630 6237  ..NT:.uuid:060b7
	0x00a0:  3335 332d 6663 6136 2d34 3037 302d 3835  353-fca6-4070-85
	0x00b0:  6634 2d31 6662 6662 3961 6464 3632 630d  f4-1fbfb9add62c.
	0x00c0:  0a4e 5453 3a20 7373 6470 3a61 6c69 7665  .NTS:.ssdp:alive
	0x00d0:  0d0a 5345 5256 4552 3a20 6970 6f73 2f37  ..SERVER:.ipos/7
	0x00e0:  2e30 2055 506e 502f 312e 3020 544c 2d57  .0.UPnP/1.0.TL-W
	0x00f0:  5237 3430 4e2f 342e 300d 0a55 534e 3a20  R740N/4.0..USN:.
	0x0100:  7575 6964 3a30 3630 6237 3335 332d 6663  uuid:060b7353-fc
	0x0110:  6136 2d34 3037 302d 3835 6634 2d31 6662  a6-4070-85f4-1fb
	0x0120:  6662 3961 6464 3632 630d 0a0d 0a         fb9add62c....
13:36:00.147743 IP (tos 0x0, ttl 4, id 0, offset 0, flags [DF], proto UDP (17), length 364)
    192.168.1.1.48871 > 239.255.255.250.1900: [udp sum ok] UDP, length 336
	0x0000:  4500 016c 0000 4000 0411 c3dd c0a8 0101  E..l..@.........
	0x0010:  efff fffa bee7 076c 0158 2a21 4e4f 5449  .......l.X*!NOTI
	0x0020:  4659 202a 2048 5454 502f 312e 310d 0a48  FY.*.HTTP/1.1..H
	0x0030:  4f53 543a 2032 3339 2e32 3535 2e32 3535  OST:.239.255.255
	0x0040:  2e32 3530 3a31 3930 300d 0a43 4143 4845  .250:1900..CACHE
	0x0050:  2d43 4f4e 5452 4f4c 3a20 6d61 782d 6167  -CONTROL:.max-ag
	0x0060:  653d 3130 300d 0a4c 4f43 4154 494f 4e3a  e=100..LOCATION:
	0x0070:  2068 7474 703a 2f2f 3139 322e 3136 382e  .http://192.168.
	0x0080:  312e 313a 3139 3030 2f69 6764 2e78 6d6c  1.1:1900/igd.xml
	0x0090:  0d0a 4e54 3a20 7572 6e3a 7363 6865 6d61  ..NT:.urn:schema
	0x00a0:  732d 7570 6e70 2d6f 7267 3a64 6576 6963  s-upnp-org:devic
	0x00b0:  653a 496e 7465 726e 6574 4761 7465 7761  e:InternetGatewa
	0x00c0:  7944 6576 6963 653a 310d 0a4e 5453 3a20  yDevice:1..NTS:.
	0x00d0:  7373 6470 3a61 6c69 7665 0d0a 5345 5256  ssdp:alive..SERV
	0x00e0:  4552 3a20 6970 6f73 2f37 2e30 2055 506e  ER:.ipos/7.0.UPn
	0x00f0:  502f 312e 3020 544c 2d57 5237 3430 4e2f  P/1.0.TL-WR740N/
	0x0100:  342e 300d 0a55 534e 3a20 7575 6964 3a30  4.0..USN:.uuid:0
	0x0110:  3630 6237 3335 332d 6663 6136 2d34 3037  60b7353-fca6-407
	0x0120:  302d 3835 6634 2d31 6662 6662 3961 6464  0-85f4-1fbfb9add
	0x0130:  3632 633a 3a75 726e 3a73 6368 656d 6173  62c::urn:schemas
	0x0140:  2d75 706e 702d 6f72 673a 6465 7669 6365  -upnp-org:device
	0x0150:  3a49 6e74 6572 6e65 7447 6174 6577 6179  :InternetGateway
	0x0160:  4465 7669 6365 3a31 0d0a 0d0a            Device:1....
13:36:00.244234 IP (tos 0x0, ttl 4, id 0, offset 0, flags [DF], proto UDP (17), length 356)
    192.168.1.1.48871 > 239.255.255.250.1900: [udp sum ok] UDP, length 328
	0x0000:  4500 0164 0000 4000 0411 c3e5 c0a8 0101  E..d..@.........
	0x0010:  efff fffa bee7 076c 0150 d2d9 4e4f 5449  .......l.P..NOTI
	0x0020:  4659 202a 2048 5454 502f 312e 310d 0a48  FY.*.HTTP/1.1..H
	0x0030:  4f53 543a 2032 3339 2e32 3535 2e32 3535  OST:.239.255.255
	0x0040:  2e32 3530 3a31 3930 300d 0a43 4143 4845  .250:1900..CACHE
	0x0050:  2d43 4f4e 5452 4f4c 3a20 6d61 782d 6167  -CONTROL:.max-ag
	0x0060:  653d 3130 300d 0a4c 4f43 4154 494f 4e3a  e=100..LOCATION:
	0x0070:  2068 7474 703a 2f2f 3139 322e 3136 382e  .http://192.168.
	0x0080:  312e 313a 3139 3030 2f69 6764 2e78 6d6c  1.1:1900/igd.xml
	0x0090:  0d0a 4e54 3a20 7572 6e3a 7363 6865 6d61  ..NT:.urn:schema
	0x00a0:  732d 7570 6e70 2d6f 7267 3a73 6572 7669  s-upnp-org:servi
	0x00b0:  6365 3a4c 6179 6572 3346 6f72 7761 7264  ce:Layer3Forward
	0x00c0:  696e 673a 310d 0a4e 5453 3a20 7373 6470  ing:1..NTS:.ssdp
	0x00d0:  3a61 6c69 7665 0d0a 5345 5256 4552 3a20  :alive..SERVER:.
	0x00e0:  6970 6f73 2f37 2e30 2055 506e 502f 312e  ipos/7.0.UPnP/1.
	0x00f0:  3020 544c 2d57 5237 3430 4e2f 342e 300d  0.TL-WR740N/4.0.
	0x0100:  0a55 534e 3a20 7575 6964 3a30 3630 6237  .USN:.uuid:060b7
	0x0110:  3335 332d 6663 6136 2d34 3037 302d 3835  353-fca6-4070-85
	0x0120:  6634 2d31 6662 6662 3961 6464 3632 633a  f4-1fbfb9add62c:
	0x0130:  3a75 726e 3a73 6368 656d 6173 2d75 706e  :urn:schemas-upn
	0x0140:  702d 6f72 673a 7365 7276 6963 653a 4c61  p-org:service:La
	0x0150:  7965 7233 466f 7277 6172 6469 6e67 3a31  yer3Forwarding:1
	0x0160:  0d0a 0d0a                                ....
13:36:00.343932 IP (tos 0x0, ttl 4, id 0, offset 0, flags [DF], proto UDP (17), length 301)
    192.168.1.1.48871 > 239.255.255.250.1900: [udp sum ok] UDP, length 273
	0x0000:  4500 012d 0000 4000 0411 c41c c0a8 0101  E..-..@.........
	0x0010:  efff fffa bee7 076c 0119 85e9 4e4f 5449  .......l....NOTI
	0x0020:  4659 202a 2048 5454 502f 312e 310d 0a48  FY.*.HTTP/1.1..H
	0x0030:  4f53 543a 2032 3339 2e32 3535 2e32 3535  OST:.239.255.255
	0x0040:  2e32 3530 3a31 3930 300d 0a43 4143 4845  .250:1900..CACHE
	0x0050:  2d43 4f4e 5452 4f4c 3a20 6d61 782d 6167  -CONTROL:.max-ag
	0x0060:  653d 3130 300d 0a4c 4f43 4154 494f 4e3a  e=100..LOCATION:
	0x0070:  2068 7474 703a 2f2f 3139 322e 3136 382e  .http://192.168.
	0x0080:  312e 313a 3139 3030 2f69 6764 2e78 6d6c  1.1:1900/igd.xml
	0x0090:  0d0a 4e54 3a20 7575 6964 3a32 3534 6539  ..NT:.uuid:254e9
	0x00a0:  3937 372d 3839 3634 2d34 3966 332d 6238  977-8964-49f3-b8
	0x00b0:  6435 2d35 3161 6362 3762 6434 3066 630d  d5-51acb7bd40fc.
	0x00c0:  0a4e 5453 3a20 7373 6470 3a61 6c69 7665  .NTS:.ssdp:alive
	0x00d0:  0d0a 5345 5256 4552 3a20 6970 6f73 2f37  ..SERVER:.ipos/7
	0x00e0:  2e30 2055 506e 502f 312e 3020 544c 2d57  .0.UPnP/1.0.TL-W
	0x00f0:  5237 3430 4e2f 342e 300d 0a55 534e 3a20  R740N/4.0..USN:.
	0x0100:  7575 6964 3a32 3534 6539 3937 372d 3839  uuid:254e9977-89
	0x0110:  3634 2d34 3966 332d 6238 6435 2d35 3161  64-49f3-b8d5-51a
	0x0120:  6362 3762 6434 3066 630d 0a0d 0a         cb7bd40fc....
13:36:00.446533 IP (tos 0x0, ttl 4, id 0, offset 0, flags [DF], proto UDP (17), length 340)
    192.168.1.1.48871 > 239.255.255.250.1900: [udp sum ok] UDP, length 312
	0x0000:  4500 0154 0000 4000 0411 c3f5 c0a8 0101  E..T..@.........
	0x0010:  efff fffa bee7 076c 0140 bd72 4e4f 5449  .......l.@.rNOTI
	0x0020:  4659 202a 2048 5454 502f 312e 310d 0a48  FY.*.HTTP/1.1..H
	0x0030:  4f53 543a 2032 3339 2e32 3535 2e32 3535  OST:.239.255.255
	0x0040:  2e32 3530 3a31 3930 300d 0a43 4143 4845  .250:1900..CACHE
	0x0050:  2d43 4f4e 5452 4f4c 3a20 6d61 782d 6167  -CONTROL:.max-ag
	0x0060:  653d 3130 300d 0a4c 4f43 4154 494f 4e3a  e=100..LOCATION:
	0x0070:  2068 7474 703a 2f2f 3139 322e 3136 382e  .http://192.168.
	0x0080:  312e 313a 3139 3030 2f69 6764 2e78 6d6c  1.1:1900/igd.xml
	0x0090:  0d0a 4e54 3a20 7572 6e3a 7363 6865 6d61  ..NT:.urn:schema
	0x00a0:  732d 7570 6e70 2d6f 7267 3a64 6576 6963  s-upnp-org:devic
	0x00b0:  653a 5741 4e44 6576 6963 653a 310d 0a4e  e:WANDevice:1..N
	0x00c0:  5453 3a20 7373 6470 3a61 6c69 7665 0d0a  TS:.ssdp:alive..
	0x00d0:  5345 5256 4552 3a20 6970 6f73 2f37 2e30  SERVER:.ipos/7.0
	0x00e0:  2055 506e 502f 312e 3020 544c 2d57 5237  .UPnP/1.0.TL-WR7
	0x00f0:  3430 4e2f 342e 300d 0a55 534e 3a20 7575  40N/4.0..USN:.uu
	0x0100:  6964 3a32 3534 6539 3937 372d 3839 3634  id:254e9977-8964
	0x0110:  2d34 3966 332d 6238 6435 2d35 3161 6362  -49f3-b8d5-51acb
	0x0120:  3762 6434 3066 633a 3a75 726e 3a73 6368  7bd40fc::urn:sch
	0x0130:  656d 6173 2d75 706e 702d 6f72 673a 6465  emas-upnp-org:de
	0x0140:  7669 6365 3a57 414e 4465 7669 6365 3a31  vice:WANDevice:1
	0x0150:  0d0a 0d0a                                ....
13:36:00.551943 IP (tos 0x0, ttl 4, id 0, offset 0, flags [DF], proto UDP (17), length 372)
    192.168.1.1.48871 > 239.255.255.250.1900: [udp sum ok] UDP, length 344
	0x0000:  4500 0174 0000 4000 0411 c3d5 c0a8 0101  E..t..@.........
	0x0010:  efff fffa bee7 076c 0160 35ab 4e4f 5449  .......l.`5.NOTI
	0x0020:  4659 202a 2048 5454 502f 312e 310d 0a48  FY.*.HTTP/1.1..H
	0x0030:  4f53 543a 2032 3339 2e32 3535 2e32 3535  OST:.239.255.255
	0x0040:  2e32 3530 3a31 3930 300d 0a43 4143 4845  .250:1900..CACHE
	0x0050:  2d43 4f4e 5452 4f4c 3a20 6d61 782d 6167  -CONTROL:.max-ag
	0x0060:  653d 3130 300d 0a4c 4f43 4154 494f 4e3a  e=100..LOCATION:
	0x0070:  2068 7474 703a 2f2f 3139 322e 3136 382e  .http://192.168.
	0x0080:  312e 313a 3139 3030 2f69 6764 2e78 6d6c  1.1:1900/igd.xml
	0x0090:  0d0a 4e54 3a20 7572 6e3a 7363 6865 6d61  ..NT:.urn:schema
	0x00a0:  732d 7570 6e70 2d6f 7267 3a73 6572 7669  s-upnp-org:servi
	0x00b0:  6365 3a57 414e 436f 6d6d 6f6e 496e 7465  ce:WANCommonInte
	0x00c0:  7266 6163 6543 6f6e 6669 673a 310d 0a4e  rfaceConfig:1..N
	0x00d0:  5453 3a20 7373 6470 3a61 6c69 7665 0d0a  TS:.ssdp:alive..
	0x00e0:  5345 5256 4552 3a20 6970 6f73 2f37 2e30  SERVER:.ipos/7.0
	0x00f0:  2055 506e 502f 312e 3020 544c 2d57 5237  .UPnP/1.0.TL-WR7
	0x0100:  3430 4e2f 342e 300d 0a55 534e 3a20 7575  40N/4.0..USN:.uu
	0x0110:  6964 3a32 3534 6539 3937 372d 3839 3634  id:254e9977-8964
	0x0120:  2d34 3966 332d 6238 6435 2d35 3161 6362  -49f3-b8d5-51acb
	0x0130:  3762 6434 3066 633a 3a75 726e 3a73 6368  7bd40fc::urn:sch
	0x0140:  656d 6173 2d75 706e 702d 6f72 673a 7365  emas-upnp-org:se
	0x0150:  7276 6963 653a 5741 4e43 6f6d 6d6f 6e49  rvice:WANCommonI
	0x0160:  6e74 6572 6661 6365 436f 6e66 6967 3a31  nterfaceConfig:1
	0x0170:  0d0a 0d0a                                ....
13:36:00.751716 IP (tos 0x0, ttl 4, id 0, offset 0, flags [DF], proto UDP (17), length 301)
    192.168.1.1.48871 > 239.255.255.250.1900: [udp sum ok] UDP, length 273
	0x0000:  4500 012d 0000 4000 0411 c41c c0a8 0101  E..-..@.........
	0x0010:  efff fffa bee7 076c 0119 2259 4e4f 5449  .......l.."YNOTI
	0x0020:  4659 202a 2048 5454 502f 312e 310d 0a48  FY.*.HTTP/1.1..H
	0x0030:  4f53 543a 2032 3339 2e32 3535 2e32 3535  OST:.239.255.255
	0x0040:  2e32 3530 3a31 3930 300d 0a43 4143 4845  .250:1900..CACHE
	0x0050:  2d43 4f4e 5452 4f4c 3a20 6d61 782d 6167  -CONTROL:.max-ag
	0x0060:  653d 3130 300d 0a4c 4f43 4154 494f 4e3a  e=100..LOCATION:
	0x0070:  2068 7474 703a 2f2f 3139 322e 3136 382e  .http://192.168.
	0x0080:  312e 313a 3139 3030 2f69 6764 2e78 6d6c  1.1:1900/igd.xml
	0x0090:  0d0a 4e54 3a20 7575 6964 3a39 6630 3836  ..NT:.uuid:9f086
	0x00a0:  3562 332d 6635 6461 2d34 6164 352d 3835  5b3-f5da-4ad5-85
	0x00b0:  6237 2d37 3430 3436 3337 6664 6633 370d  b7-7404637fdf37.
	0x00c0:  0a4e 5453 3a20 7373 6470 3a61 6c69 7665  .NTS:.ssdp:alive
	0x00d0:  0d0a 5345 5256 4552 3a20 6970 6f73 2f37  ..SERVER:.ipos/7
	0x00e0:  2e30 2055 506e 502f 312e 3020 544c 2d57  .0.UPnP/1.0.TL-W
	0x00f0:  5237 3430 4e2f 342e 300d 0a55 534e 3a20  R740N/4.0..USN:.
	0x0100:  7575 6964 3a39 6630 3836 3562 332d 6635  uuid:9f0865b3-f5
	0x0110:  6461 2d34 6164 352d 3835 6237 2d37 3430  da-4ad5-85b7-740
	0x0120:  3436 3337 6664 6633 370d 0a0d 0a         4637fdf37....
13:36:00.752219 IP (tos 0x0, ttl 255, id 15504, offset 0, flags [none], proto UDP (17), length 169)
    192.168.1.143.mdns > 224.0.0.251.mdns: [udp sum ok] 0 [1n] [1au] ANY (QM)? 00:6d:52:00:0f:9c@fe80::26d:52ff:fe00:f9c._apple-mobdev2._tcp.local. ns: 00:6d:52:00:0f:9c@fe80::26d:52ff:fe00:f9c._apple-mobdev2._tcp.local. [2m] SRV Temnuu.local.:32498 0 0 ar: . OPT UDPsize=1440 (141)
	0x0000:  4500 00a9 3c90 0000 ff11 db80 c0a8 018f  E...<...........
	0x0010:  e000 00fb 14e9 14e9 0095 9b2a 0000 0000  ...........*....
	0x0020:  0001 0000 0001 0001 2930 303a 3664 3a35  ........)00:6d:5
	0x0030:  323a 3030 3a30 663a 3963 4066 6538 303a  2:00:0f:9c@fe80:
	0x0040:  3a32 3664 3a35 3266 663a 6665 3030 3a66  :26d:52ff:fe00:f
	0x0050:  3963 0e5f 6170 706c 652d 6d6f 6264 6576  9c._apple-mobdev
	0x0060:  3204 5f74 6370 056c 6f63 616c 0000 ff00  2._tcp.local....
	0x0070:  01c0 0c00 2100 0100 0000 7800 0f00 0000  ....!.....x.....
	0x0080:  007e f206 5465 6d6e 7575 c04a 0000 2905  .~..Temnuu.J..).
	0x0090:  a000 0011 9400 1200 0400 0e00 f322 6d52  ............."mR
	0x00a0:  000f 9c00 6d52 000f 9c                   ....mR...
13:36:00.752632 IP6 (flowlabel 0xe62da, hlim 255, next-header UDP (17) payload length: 149) fe80::5a:2e23:d4d6:79ca.mdns > ff02::fb.mdns: [udp sum ok] 0 [1n] [1au] ANY (QM)? 00:6d:52:00:0f:9c@fe80::26d:52ff:fe00:f9c._apple-mobdev2._tcp.local. ns: 00:6d:52:00:0f:9c@fe80::26d:52ff:fe00:f9c._apple-mobdev2._tcp.local. [2m] SRV Temnuu.local.:32498 0 0 ar: . OPT UDPsize=1440 (141)
	0x0000:  600e 62da 0095 11ff fe80 0000 0000 0000  `.b.............
	0x0010:  005a 2e23 d4d6 79ca ff02 0000 0000 0000  .Z.#..y.........
	0x0020:  0000 0000 0000 00fb 14e9 14e9 0095 c2c0  ................
	0x0030:  0000 0000 0001 0000 0001 0001 2930 303a  ............)00:
	0x0040:  3664 3a35 323a 3030 3a30 663a 3963 4066  6d:52:00:0f:9c@f
	0x0050:  6538 303a 3a32 3664 3a35 3266 663a 6665  e80::26d:52ff:fe
	0x0060:  3030 3a66 3963 0e5f 6170 706c 652d 6d6f  00:f9c._apple-mo
	0x0070:  6264 6576 3204 5f74 6370 056c 6f63 616c  bdev2._tcp.local
	0x0080:  0000 ff00 01c0 0c00 2100 0100 0000 7800  ........!.....x.
	0x0090:  0f00 0000 007e f206 5465 6d6e 7575 c04a  .....~..Temnuu.J
	0x00a0:  0000 2905 a000 0011 9400 1200 0400 0e00  ..).............
	0x00b0:  f322 6d52 000f 9c00 6d52 000f 9c         ."mR....mR...
13:36:00.753113 IP (tos 0x0, ttl 255, id 62932, offset 0, flags [none], proto UDP (17), length 131)
    192.168.1.143.mdns > 224.0.0.251.mdns: [udp sum ok] 0 [2n] [1au] ANY (QM)? Temnuu.local. ns: Temnuu.local. [2m] AAAA fe80::5a:2e23:d4d6:79ca, Temnuu.local. [2m] A 192.168.1.143 ar: . OPT UDPsize=1440 (103)
	0x0000:  4500 0083 f5d4 0000 ff11 2262 c0a8 018f  E........."b....
	0x0010:  e000 00fb 14e9 14e9 006f 5fe7 0000 0000  .........o_.....
	0x0020:  0001 0000 0002 0001 0654 656d 6e75 7505  .........Temnuu.
	0x0030:  6c6f 6361 6c00 00ff 0001 c00c 001c 0001  local...........
	0x0040:  0000 0078 0010 fe80 0000 0000 0000 005a  ...x...........Z
	0x0050:  2e23 d4d6 79ca c00c 0001 0001 0000 0078  .#..y..........x
	0x0060:  0004 c0a8 018f 0000 2905 a000 0011 9400  ........).......
	0x0070:  1200 0400 0e00 f322 6d52 000f 9c00 6d52  ......."mR....mR
	0x0080:  000f 9c                                  ...
13:36:00.753506 IP6 (flowlabel 0xe62da, hlim 255, next-header UDP (17) payload length: 111) fe80::5a:2e23:d4d6:79ca.mdns > ff02::fb.mdns: [udp sum ok] 0 [2n] [1au] ANY (QM)? Temnuu.local. ns: Temnuu.local. [2m] AAAA fe80::5a:2e23:d4d6:79ca, Temnuu.local. [2m] A 192.168.1.143 ar: . OPT UDPsize=1440 (103)
	0x0000:  600e 62da 006f 11ff fe80 0000 0000 0000  `.b..o..........
	0x0010:  005a 2e23 d4d6 79ca ff02 0000 0000 0000  .Z.#..y.........
	0x0020:  0000 0000 0000 00fb 14e9 14e9 006f 877d  .............o.}
	0x0030:  0000 0000 0001 0000 0002 0001 0654 656d  .............Tem
	0x0040:  6e75 7505 6c6f 6361 6c00 00ff 0001 c00c  nuu.local.......
	0x0050:  001c 0001 0000 0078 0010 fe80 0000 0000  .......x........
	0x0060:  0000 005a 2e23 d4d6 79ca c00c 0001 0001  ...Z.#..y.......
	0x0070:  0000 0078 0004 c0a8 018f 0000 2905 a000  ...x........)...
	0x0080:  0011 9400 1200 0400 0e00 f322 6d52 000f  ..........."mR..
	0x0090:  9c00 6d52 000f 9c                        ..mR...
13:36:00.753932 IP (tos 0x0, ttl 255, id 18256, offset 0, flags [none], proto UDP (17), length 169)
    192.168.1.143.mdns > 224.0.0.251.mdns: [udp sum ok] 0 [1n] [1au] ANY (QM)? 00:6d:52:00:0f:9c@fe80::26d:52ff:fe00:f9c._apple-mobdev2._tcp.local. ns: 00:6d:52:00:0f:9c@fe80::26d:52ff:fe00:f9c._apple-mobdev2._tcp.local. [2m] SRV Temnuu.local.:32498 0 0 ar: . OPT UDPsize=1440 (141)
	0x0000:  4500 00a9 4750 0000 ff11 d0c0 c0a8 018f  E...GP..........
	0x0010:  e000 00fb 14e9 14e9 0095 9b2a 0000 0000  ...........*....
	0x0020:  0001 0000 0001 0001 2930 303a 3664 3a35  ........)00:6d:5
	0x0030:  323a 3030 3a30 663a 3963 4066 6538 303a  2:00:0f:9c@fe80:
	0x0040:  3a32 3664 3a35 3266 663a 6665 3030 3a66  :26d:52ff:fe00:f
	0x0050:  3963 0e5f 6170 706c 652d 6d6f 6264 6576  9c._apple-mobdev
	0x0060:  3204 5f74 6370 056c 6f63 616c 0000 ff00  2._tcp.local....
	0x0070:  01c0 0c00 2100 0100 0000 7800 0f00 0000  ....!.....x.....
	0x0080:  007e f206 5465 6d6e 7575 c04a 0000 2905  .~..Temnuu.J..).
	0x0090:  a000 0011 9400 1200 0400 0e00 f322 6d52  ............."mR
	0x00a0:  000f 9c00 6d52 000f 9c                   ....mR...
13:36:00.754505 IP6 (flowlabel 0xe62da, hlim 255, next-header UDP (17) payload length: 149) fe80::5a:2e23:d4d6:79ca.mdns > ff02::fb.mdns: [udp sum ok] 0 [1n] [1au] ANY (QM)? 00:6d:52:00:0f:9c@fe80::26d:52ff:fe00:f9c._apple-mobdev2._tcp.local. ns: 00:6d:52:00:0f:9c@fe80::26d:52ff:fe00:f9c._apple-mobdev2._tcp.local. [2m] SRV Temnuu.local.:32498 0 0 ar: . OPT UDPsize=1440 (141)
	0x0000:  600e 62da 0095 11ff fe80 0000 0000 0000  `.b.............
	0x0010:  005a 2e23 d4d6 79ca ff02 0000 0000 0000  .Z.#..y.........
	0x0020:  0000 0000 0000 00fb 14e9 14e9 0095 c2c0  ................
	0x0030:  0000 0000 0001 0000 0001 0001 2930 303a  ............)00:
	0x0040:  3664 3a35 323a 3030 3a30 663a 3963 4066  6d:52:00:0f:9c@f
	0x0050:  6538 303a 3a32 3664 3a35 3266 663a 6665  e80::26d:52ff:fe
	0x0060:  3030 3a66 3963 0e5f 6170 706c 652d 6d6f  00:f9c._apple-mo
	0x0070:  6264 6576 3204 5f74 6370 056c 6f63 616c  bdev2._tcp.local
	0x0080:  0000 ff00 01c0 0c00 2100 0100 0000 7800  ........!.....x.
	0x0090:  0f00 0000 007e f206 5465 6d6e 7575 c04a  .....~..Temnuu.J
	0x00a0:  0000 2905 a000 0011 9400 1200 0400 0e00  ..).............
	0x00b0:  f322 6d52 000f 9c00 6d52 000f 9c         ."mR....mR...
13:36:00.754865 IP (tos 0x0, ttl 255, id 44926, offset 0, flags [none], proto UDP (17), length 239)
    192.168.1.143.mdns > 224.0.0.251.mdns: [udp sum ok] 0*- [0q] 2/0/3 A.C.9.7.6.D.4.D.3.2.E.2.A.5.0.0.0.0.0.0.0.0.0.0.0.0.0.0.0.8.E.F.ip6.arpa. (Cache flush) [2m] PTR Temnuu.local., 143.1.168.192.in-addr.arpa. (Cache flush) [2m] PTR Temnuu.local. ar: A.C.9.7.6.D.4.D.3.2.E.2.A.5.0.0.0.0.0.0.0.0.0.0.0.0.0.0.0.8.E.F.ip6.arpa. (Cache flush) [2m] NSEC, 143.1.168.192.in-addr.arpa. (Cache flush) [2m] NSEC, . OPT UDPsize=1440 (211)
	0x0000:  4500 00ef af7e 0000 ff11 684c c0a8 018f  E....~....hL....
	0x0010:  e000 00fb 14e9 14e9 00db bae1 0000 8400  ................
	0x0020:  0000 0002 0000 0003 0141 0143 0139 0137  .........A.C.9.7
	0x0030:  0136 0144 0134 0144 0133 0132 0145 0132  .6.D.4.D.3.2.E.2
	0x0040:  0141 0135 0130 0130 0130 0130 0130 0130  .A.5.0.0.0.0.0.0
	0x0050:  0130 0130 0130 0130 0130 0130 0130 0130  .0.0.0.0.0.0.0.0
	0x0060:  0130 0138 0145 0146 0369 7036 0461 7270  .0.8.E.F.ip6.arp
	0x0070:  6100 000c 8001 0000 0078 000e 0654 656d  a........x...Tem
	0x0080:  6e75 7505 6c6f 6361 6c00 0331 3433 0131  nuu.local..143.1
	0x0090:  0331 3638 0331 3932 0769 6e2d 6164 6472  .168.192.in-addr
	0x00a0:  c050 000c 8001 0000 0078 0002 c060 c00c  .P.......x...`..
	0x00b0:  002f 8001 0000 0078 0006 c00c 0002 0008  ./.....x........
	0x00c0:  c06e 002f 8001 0000 0078 0006 c06e 0002  .n./.....x...n..
	0x00d0:  0008 0000 2905 a000 0011 9400 1200 0400  ....)...........
	0x00e0:  0e00 f322 6d52 000f 9c00 6d52 000f 9c    ..."mR....mR...
13:36:00.755416 IP6 (flowlabel 0xe62da, hlim 255, next-header UDP (17) payload length: 219) fe80::5a:2e23:d4d6:79ca.mdns > ff02::fb.mdns: [udp sum ok] 0*- [0q] 2/0/3 A.C.9.7.6.D.4.D.3.2.E.2.A.5.0.0.0.0.0.0.0.0.0.0.0.0.0.0.0.8.E.F.ip6.arpa. (Cache flush) [2m] PTR Temnuu.local., 143.1.168.192.in-addr.arpa. (Cache flush) [2m] PTR Temnuu.local. ar: A.C.9.7.6.D.4.D.3.2.E.2.A.5.0.0.0.0.0.0.0.0.0.0.0.0.0.0.0.8.E.F.ip6.arpa. (Cache flush) [2m] NSEC, 143.1.168.192.in-addr.arpa. (Cache flush) [2m] NSEC, . OPT UDPsize=1440 (211)
	0x0000:  600e 62da 00db 11ff fe80 0000 0000 0000  `.b.............
	0x0010:  005a 2e23 d4d6 79ca ff02 0000 0000 0000  .Z.#..y.........
	0x0020:  0000 0000 0000 00fb 14e9 14e9 00db e277  ...............w
	0x0030:  0000 8400 0000 0002 0000 0003 0141 0143  .............A.C
	0x0040:  0139 0137 0136 0144 0134 0144 0133 0132  .9.7.6.D.4.D.3.2
	0x0050:  0145 0132 0141 0135 0130 0130 0130 0130  .E.2.A.5.0.0.0.0
	0x0060:  0130 0130 0130 0130 0130 0130 0130 0130  .0.0.0.0.0.0.0.0
	0x0070:  0130 0130 0130 0138 0145 0146 0369 7036  .0.0.0.8.E.F.ip6
	0x0080:  0461 7270 6100 000c 8001 0000 0078 000e  .arpa........x..
	0x0090:  0654 656d 6e75 7505 6c6f 6361 6c00 0331  .Temnuu.local..1
	0x00a0:  3433 0131 0331 3638 0331 3932 0769 6e2d  43.1.168.192.in-
	0x00b0:  6164 6472 c050 000c 8001 0000 0078 0002  addr.P.......x..
	0x00c0:  c060 c00c 002f 8001 0000 0078 0006 c00c  .`.../.....x....
	0x00d0:  0002 0008 c06e 002f 8001 0000 0078 0006  .....n./.....x..
	0x00e0:  c06e 0002 0008 0000 2905 a000 0011 9400  .n......).......
	0x00f0:  1200 0400 0e00 f322 6d52 000f 9c00 6d52  ......."mR....mR
	0x0100:  000f 9c                                  ...
13:36:00.755899 IP (tos 0x0, ttl 255, id 61652, offset 0, flags [none], proto UDP (17), length 145)
    192.168.1.143.mdns > 224.0.0.251.mdns: [udp sum ok] 0*- [0q] 2/0/2 Temnuu.local. (Cache flush) [2m] AAAA fe80::5a:2e23:d4d6:79ca, Temnuu.local. (Cache flush) [2m] A 192.168.1.143 ar: Temnuu.local. (Cache flush) [2m] NSEC, . OPT UDPsize=1440 (117)
	0x0000:  4500 0091 f0d4 0000 ff11 2754 c0a8 018f  E.........'T....
	0x0010:  e000 00fb 14e9 14e9 007d 5c00 0000 8400  .........}\.....
	0x0020:  0000 0002 0000 0002 0654 656d 6e75 7505  .........Temnuu.
	0x0030:  6c6f 6361 6c00 001c 8001 0000 0078 0010  local........x..
	0x0040:  fe80 0000 0000 0000 005a 2e23 d4d6 79ca  .........Z.#..y.
	0x0050:  c00c 0001 8001 0000 0078 0004 c0a8 018f  .........x......
	0x0060:  c00c 002f 8001 0000 0078 0008 c00c 0004  .../.....x......
	0x0070:  4000 0008 0000 2905 a000 0011 9400 1200  @.....).........
	0x0080:  0400 0e00 f322 6d52 000f 9c00 6d52 000f  ....."mR....mR..
	0x0090:  9c                                       .
13:36:00.756292 IP6 (flowlabel 0xe62da, hlim 255, next-header UDP (17) payload length: 125) fe80::5a:2e23:d4d6:79ca.mdns > ff02::fb.mdns: [udp sum ok] 0*- [0q] 2/0/2 Temnuu.local. (Cache flush) [2m] AAAA fe80::5a:2e23:d4d6:79ca, Temnuu.local. (Cache flush) [2m] A 192.168.1.143 ar: Temnuu.local. (Cache flush) [2m] NSEC, . OPT UDPsize=1440 (117)
	0x0000:  600e 62da 007d 11ff fe80 0000 0000 0000  `.b..}..........
	0x0010:  005a 2e23 d4d6 79ca ff02 0000 0000 0000  .Z.#..y.........
	0x0020:  0000 0000 0000 00fb 14e9 14e9 007d 8396  .............}..
	0x0030:  0000 8400 0000 0002 0000 0002 0654 656d  .............Tem
	0x0040:  6e75 7505 6c6f 6361 6c00 001c 8001 0000  nuu.local.......
	0x0050:  0078 0010 fe80 0000 0000 0000 005a 2e23  .x...........Z.#
	0x0060:  d4d6 79ca c00c 0001 8001 0000 0078 0004  ..y..........x..
	0x0070:  c0a8 018f c00c 002f 8001 0000 0078 0008  ......./.....x..
	0x0080:  c00c 0004 4000 0008 0000 2905 a000 0011  ....@.....).....
	0x0090:  9400 1200 0400 0e00 f322 6d52 000f 9c00  ........."mR....
	0x00a0:  6d52 000f 9c                             mR...
13:36:00.756837 IP (tos 0x0, ttl 255, id 64669, offset 0, flags [none], proto UDP (17), length 299)
    192.168.1.143.mdns > 224.0.0.251.mdns: [udp sum ok] 0*- [0q] 6/0/2 00:6d:52:00:0f:9c@fe80::26d:52ff:fe00:f9c._apple-mobdev2._tcp.local. (Cache flush) [1h15m] TXT "", _services._dns-sd._udp.local. [1h15m] PTR _apple-mobdev2._tcp.local., 4deb0591._sub._apple-mobdev2._tcp.local. [1h15m] PTR 00:6d:52:00:0f:9c@fe80::26d:52ff:fe00:f9c._apple-mobdev2._tcp.local., 47c90549._sub._apple-mobdev2._tcp.local. [1h15m] PTR 00:6d:52:00:0f:9c@fe80::26d:52ff:fe00:f9c._apple-mobdev2._tcp.local., _apple-mobdev2._tcp.local. [1h15m] PTR 00:6d:52:00:0f:9c@fe80::26d:52ff:fe00:f9c._apple-mobdev2._tcp.local., 00:6d:52:00:0f:9c@fe80::26d:52ff:fe00:f9c._apple-mobdev2._tcp.local. (Cache flush) [2m] SRV Temnuu.local.:32498 0 0 ar: 00:6d:52:00:0f:9c@fe80::26d:52ff:fe00:f9c._apple-mobdev2._tcp.local. (Cache flush) [1h15m] NSEC, . OPT UDPsize=1440 (271)
	0x0000:  4500 012b fc9d 0000 ff11 1af1 c0a8 018f  E..+............
	0x0010:  e000 00fb 14e9 14e9 0117 c68c 0000 8400  ................
	0x0020:  0000 0006 0000 0002 2930 303a 3664 3a35  ........)00:6d:5
	0x0030:  323a 3030 3a30 663a 3963 4066 6538 303a  2:00:0f:9c@fe80:
	0x0040:  3a32 3664 3a35 3266 663a 6665 3030 3a66  :26d:52ff:fe00:f
	0x0050:  3963 0e5f 6170 706c 652d 6d6f 6264 6576  9c._apple-mobdev
	0x0060:  3204 5f74 6370 056c 6f63 616c 0000 1080  2._tcp.local....
	0x0070:  0100 0011 9400 0100 095f 7365 7276 6963  ........._servic
	0x0080:  6573 075f 646e 732d 7364 045f 7564 70c0  es._dns-sd._udp.
	0x0090:  4a00 0c00 0100 0011 9400 02c0 3608 3464  J...........6.4d
	0x00a0:  6562 3035 3931 045f 7375 62c0 3600 0c00  eb0591._sub.6...
	0x00b0:  0100 0011 9400 02c0 0c08 3437 6339 3035  ..........47c905
	0x00c0:  3439 c08a 000c 0001 0000 1194 0002 c00c  49..............
	0x00d0:  c036 000c 0001 0000 1194 0002 c00c c00c  .6..............
	0x00e0:  0021 8001 0000 0078 000f 0000 0000 7ef2  .!.....x......~.
	0x00f0:  0654 656d 6e75 75c0 4ac0 0c00 2f80 0100  .Temnuu.J.../...
	0x0100:  0011 9400 09c0 0c00 0500 0080 0040 0000  .............@..
	0x0110:  2905 a000 0011 9400 1200 0400 0e00 f322  ).............."
	0x0120:  6d52 000f 9c00 6d52 000f 9c              mR....mR...
13:36:00.757449 IP6 (flowlabel 0xe62da, hlim 255, next-header UDP (17) payload length: 279) fe80::5a:2e23:d4d6:79ca.mdns > ff02::fb.mdns: [udp sum ok] 0*- [0q] 6/0/2 00:6d:52:00:0f:9c@fe80::26d:52ff:fe00:f9c._apple-mobdev2._tcp.local. (Cache flush) [1h15m] TXT "", _services._dns-sd._udp.local. [1h15m] PTR _apple-mobdev2._tcp.local., 4deb0591._sub._apple-mobdev2._tcp.local. [1h15m] PTR 00:6d:52:00:0f:9c@fe80::26d:52ff:fe00:f9c._apple-mobdev2._tcp.local., 47c90549._sub._apple-mobdev2._tcp.local. [1h15m] PTR 00:6d:52:00:0f:9c@fe80::26d:52ff:fe00:f9c._apple-mobdev2._tcp.local., _apple-mobdev2._tcp.local. [1h15m] PTR 00:6d:52:00:0f:9c@fe80::26d:52ff:fe00:f9c._apple-mobdev2._tcp.local., 00:6d:52:00:0f:9c@fe80::26d:52ff:fe00:f9c._apple-mobdev2._tcp.local. (Cache flush) [2m] SRV Temnuu.local.:32498 0 0 ar: 00:6d:52:00:0f:9c@fe80::26d:52ff:fe00:f9c._apple-mobdev2._tcp.local. (Cache flush) [1h15m] NSEC, . OPT UDPsize=1440 (271)
	0x0000:  600e 62da 0117 11ff fe80 0000 0000 0000  `.b.............
	0x0010:  005a 2e23 d4d6 79ca ff02 0000 0000 0000  .Z.#..y.........
	0x0020:  0000 0000 0000 00fb 14e9 14e9 0117 ee22  ..............."
	0x0030:  0000 8400 0000 0006 0000 0002 2930 303a  ............)00:
	0x0040:  3664 3a35 323a 3030 3a30 663a 3963 4066  6d:52:00:0f:9c@f
	0x0050:  6538 303a 3a32 3664 3a35 3266 663a 6665  e80::26d:52ff:fe
	0x0060:  3030 3a66 3963 0e5f 6170 706c 652d 6d6f  00:f9c._apple-mo
	0x0070:  6264 6576 3204 5f74 6370 056c 6f63 616c  bdev2._tcp.local
	0x0080:  0000 1080 0100 0011 9400 0100 095f 7365  ............._se
	0x0090:  7276 6963 6573 075f 646e 732d 7364 045f  rvices._dns-sd._
	0x00a0:  7564 70c0 4a00 0c00 0100 0011 9400 02c0  udp.J...........
	0x00b0:  3608 3464 6562 3035 3931 045f 7375 62c0  6.4deb0591._sub.
	0x00c0:  3600 0c00 0100 0011 9400 02c0 0c08 3437  6.............47
	0x00d0:  6339 3035 3439 c08a 000c 0001 0000 1194  c90549..........
	0x00e0:  0002 c00c c036 000c 0001 0000 1194 0002  .....6..........
	0x00f0:  c00c c00c 0021 8001 0000 0078 000f 0000  .....!.....x....
	0x0100:  0000 7ef2 0654 656d 6e75 75c0 4ac0 0c00  ..~..Temnuu.J...
	0x0110:  2f80 0100 0011 9400 09c0 0c00 0500 0080  /...............
	0x0120:  0040 0000 2905 a000 0011 9400 1200 0400  .@..)...........
	0x0130:  0e00 f322 6d52 000f 9c00 6d52 000f 9c    ..."mR....mR...
13:36:00.757820 IP (tos 0x0, ttl 255, id 44493, offset 0, flags [none], proto UDP (17), length 145)
    192.168.1.143.mdns > 224.0.0.251.mdns: [udp sum ok] 0*- [0q] 2/0/2 Temnuu.local. (Cache flush) [2m] AAAA fe80::5a:2e23:d4d6:79ca, Temnuu.local. (Cache flush) [2m] A 192.168.1.143 ar: Temnuu.local. (Cache flush) [2m] NSEC, . OPT UDPsize=1440 (117)
	0x0000:  4500 0091 adcd 0000 ff11 6a5b c0a8 018f  E.........j[....
	0x0010:  e000 00fb 14e9 14e9 007d 5c00 0000 8400  .........}\.....
	0x0020:  0000 0002 0000 0002 0654 656d 6e75 7505  .........Temnuu.
	0x0030:  6c6f 6361 6c00 001c 8001 0000 0078 0010  local........x..
	0x0040:  fe80 0000 0000 0000 005a 2e23 d4d6 79ca  .........Z.#..y.
	0x0050:  c00c 0001 8001 0000 0078 0004 c0a8 018f  .........x......
	0x0060:  c00c 002f 8001 0000 0078 0008 c00c 0004  .../.....x......
	0x0070:  4000 0008 0000 2905 a000 0011 9400 1200  @.....).........
	0x0080:  0400 0e00 f322 6d52 000f 9c00 6d52 000f  ....."mR....mR..
	0x0090:  9c                                       .
13:36:00.758299 IP6 (flowlabel 0xe62da, hlim 255, next-header UDP (17) payload length: 125) fe80::5a:2e23:d4d6:79ca.mdns > ff02::fb.mdns: [udp sum ok] 0*- [0q] 2/0/2 Temnuu.local. (Cache flush) [2m] AAAA fe80::5a:2e23:d4d6:79ca, Temnuu.local. (Cache flush) [2m] A 192.168.1.143 ar: Temnuu.local. (Cache flush) [2m] NSEC, . OPT UDPsize=1440 (117)
	0x0000:  600e 62da 007d 11ff fe80 0000 0000 0000  `.b..}..........
	0x0010:  005a 2e23 d4d6 79ca ff02 0000 0000 0000  .Z.#..y.........
	0x0020:  0000 0000 0000 00fb 14e9 14e9 007d 8396  .............}..
	0x0030:  0000 8400 0000 0002 0000 0002 0654 656d  .............Tem
	0x0040:  6e75 7505 6c6f 6361 6c00 001c 8001 0000  nuu.local.......
	0x0050:  0078 0010 fe80 0000 0000 0000 005a 2e23  .x...........Z.#
	0x0060:  d4d6 79ca c00c 0001 8001 0000 0078 0004  ..y..........x..
	0x0070:  c0a8 018f c00c 002f 8001 0000 0078 0008  ......./.....x..
	0x0080:  c00c 0004 4000 0008 0000 2905 a000 0011  ....@.....).....
	0x0090:  9400 1200 0400 0e00 f322 6d52 000f 9c00  ........."mR....
	0x00a0:  6d52 000f 9c                             mR...
13:36:00.758815 IP (tos 0x0, ttl 255, id 49532, offset 0, flags [none], proto UDP (17), length 299)
    192.168.1.143.mdns > 224.0.0.251.mdns: [udp sum ok] 0*- [0q] 6/0/2 00:6d:52:00:0f:9c@fe80::26d:52ff:fe00:f9c._apple-mobdev2._tcp.local. (Cache flush) [1h15m] TXT "", _services._dns-sd._udp.local. [1h15m] PTR _apple-mobdev2._tcp.local., 4deb0591._sub._apple-mobdev2._tcp.local. [1h15m] PTR 00:6d:52:00:0f:9c@fe80::26d:52ff:fe00:f9c._apple-mobdev2._tcp.local., 47c90549._sub._apple-mobdev2._tcp.local. [1h15m] PTR 00:6d:52:00:0f:9c@fe80::26d:52ff:fe00:f9c._apple-mobdev2._tcp.local., _apple-mobdev2._tcp.local. [1h15m] PTR 00:6d:52:00:0f:9c@fe80::26d:52ff:fe00:f9c._apple-mobdev2._tcp.local., 00:6d:52:00:0f:9c@fe80::26d:52ff:fe00:f9c._apple-mobdev2._tcp.local. (Cache flush) [2m] SRV Temnuu.local.:32498 0 0 ar: 00:6d:52:00:0f:9c@fe80::26d:52ff:fe00:f9c._apple-mobdev2._tcp.local. (Cache flush) [1h15m] NSEC, . OPT UDPsize=1440 (271)
	0x0000:  4500 012b c17c 0000 ff11 5612 c0a8 018f  E..+.|....V.....
	0x0010:  e000 00fb 14e9 14e9 0117 c68c 0000 8400  ................
	0x0020:  0000 0006 0000 0002 2930 303a 3664 3a35  ........)00:6d:5
	0x0030:  323a 3030 3a30 663a 3963 4066 6538 303a  2:00:0f:9c@fe80:
	0x0040:  3a32 3664 3a35 3266 663a 6665 3030 3a66  :26d:52ff:fe00:f
	0x0050:  3963 0e5f 6170 706c 652d 6d6f 6264 6576  9c._apple-mobdev
	0x0060:  3204 5f74 6370 056c 6f63 616c 0000 1080  2._tcp.local....
	0x0070:  0100 0011 9400 0100 095f 7365 7276 6963  ........._servic
	0x0080:  6573 075f 646e 732d 7364 045f 7564 70c0  es._dns-sd._udp.
	0x0090:  4a00 0c00 0100 0011 9400 02c0 3608 3464  J...........6.4d
	0x00a0:  6562 3035 3931 045f 7375 62c0 3600 0c00  eb0591._sub.6...
	0x00b0:  0100 0011 9400 02c0 0c08 3437 6339 3035  ..........47c905
	0x00c0:  3439 c08a 000c 0001 0000 1194 0002 c00c  49..............
	0x00d0:  c036 000c 0001 0000 1194 0002 c00c c00c  .6..............
	0x00e0:  0021 8001 0000 0078 000f 0000 0000 7ef2  .!.....x......~.
	0x00f0:  0654 656d 6e75 75c0 4ac0 0c00 2f80 0100  .Temnuu.J.../...
	0x0100:  0011 9400 09c0 0c00 0500 0080 0040 0000  .............@..
	0x0110:  2905 a000 0011 9400 1200 0400 0e00 f322  ).............."
	0x0120:  6d52 000f 9c00 6d52 000f 9c              mR....mR...
13:36:00.759721 IP6 (flowlabel 0xe62da, hlim 255, next-header UDP (17) payload length: 279) fe80::5a:2e23:d4d6:79ca.mdns > ff02::fb.mdns: [udp sum ok] 0*- [0q] 6/0/2 00:6d:52:00:0f:9c@fe80::26d:52ff:fe00:f9c._apple-mobdev2._tcp.local. (Cache flush) [1h15m] TXT "", _services._dns-sd._udp.local. [1h15m] PTR _apple-mobdev2._tcp.local., 4deb0591._sub._apple-mobdev2._tcp.local. [1h15m] PTR 00:6d:52:00:0f:9c@fe80::26d:52ff:fe00:f9c._apple-mobdev2._tcp.local., 47c90549._sub._apple-mobdev2._tcp.local. [1h15m] PTR 00:6d:52:00:0f:9c@fe80::26d:52ff:fe00:f9c._apple-mobdev2._tcp.local., _apple-mobdev2._tcp.local. [1h15m] PTR 00:6d:52:00:0f:9c@fe80::26d:52ff:fe00:f9c._apple-mobdev2._tcp.local., 00:6d:52:00:0f:9c@fe80::26d:52ff:fe00:f9c._apple-mobdev2._tcp.local. (Cache flush) [2m] SRV Temnuu.local.:32498 0 0 ar: 00:6d:52:00:0f:9c@fe80::26d:52ff:fe00:f9c._apple-mobdev2._tcp.local. (Cache flush) [1h15m] NSEC, . OPT UDPsize=1440 (271)
	0x0000:  600e 62da 0117 11ff fe80 0000 0000 0000  `.b.............
	0x0010:  005a 2e23 d4d6 79ca ff02 0000 0000 0000  .Z.#..y.........
	0x0020:  0000 0000 0000 00fb 14e9 14e9 0117 ee22  ..............."
	0x0030:  0000 8400 0000 0006 0000 0002 2930 303a  ............)00:
	0x0040:  3664 3a35 323a 3030 3a30 663a 3963 4066  6d:52:00:0f:9c@f
	0x0050:  6538 303a 3a32 3664 3a35 3266 663a 6665  e80::26d:52ff:fe
	0x0060:  3030 3a66 3963 0e5f 6170 706c 652d 6d6f  00:f9c._apple-mo
	0x0070:  6264 6576 3204 5f74 6370 056c 6f63 616c  bdev2._tcp.local
	0x0080:  0000 1080 0100 0011 9400 0100 095f 7365  ............._se
	0x0090:  7276 6963 6573 075f 646e 732d 7364 045f  rvices._dns-sd._
	0x00a0:  7564 70c0 4a00 0c00 0100 0011 9400 02c0  udp.J...........
	0x00b0:  3608 3464 6562 3035 3931 045f 7375 62c0  6.4deb0591._sub.
	0x00c0:  3600 0c00 0100 0011 9400 02c0 0c08 3437  6.............47
	0x00d0:  6339 3035 3439 c08a 000c 0001 0000 1194  c90549..........
	0x00e0:  0002 c00c c036 000c 0001 0000 1194 0002  .....6..........
	0x00f0:  c00c c00c 0021 8001 0000 0078 000f 0000  .....!.....x....
	0x0100:  0000 7ef2 0654 656d 6e75 75c0 4ac0 0c00  ..~..Temnuu.J...
	0x0110:  2f80 0100 0011 9400 09c0 0c00 0500 0080  /...............
	0x0120:  0040 0000 2905 a000 0011 9400 1200 0400  .@..)...........
	0x0130:  0e00 f322 6d52 000f 9c00 6d52 000f 9c    ..."mR....mR...
13:36:00.760185 IP (tos 0x0, ttl 255, id 34019, offset 0, flags [none], proto UDP (17), length 303)
    192.168.1.143.mdns > 224.0.0.251.mdns: [udp sum ok] 0*- [0q] 4/0/4 A.C.9.7.6.D.4.D.3.2.E.2.A.5.0.0.0.0.0.0.0.0.0.0.0.0.0.0.0.8.E.F.ip6.arpa. (Cache flush) [2m] PTR Temnuu.local., 143.1.168.192.in-addr.arpa. (Cache flush) [2m] PTR Temnuu.local., Temnuu.local. (Cache flush) [2m] AAAA fe80::5a:2e23:d4d6:79ca, Temnuu.local. (Cache flush) [2m] A 192.168.1.143 ar: A.C.9.7.6.D.4.D.3.2.E.2.A.5.0.0.0.0.0.0.0.0.0.0.0.0.0.0.0.8.E.F.ip6.arpa. (Cache flush) [2m] NSEC, 143.1.168.192.in-addr.arpa. (Cache flush) [2m] NSEC, Temnuu.local. (Cache flush) [2m] NSEC, . OPT UDPsize=1440 (275)
	0x0000:  4500 012f 84e3 0000 ff11 92a7 c0a8 018f  E../............
	0x0010:  e000 00fb 14e9 14e9 011b b923 0000 8400  ...........#....
	0x0020:  0000 0004 0000 0004 0141 0143 0139 0137  .........A.C.9.7
	0x0030:  0136 0144 0134 0144 0133 0132 0145 0132  .6.D.4.D.3.2.E.2
	0x0040:  0141 0135 0130 0130 0130 0130 0130 0130  .A.5.0.0.0.0.0.0
	0x0050:  0130 0130 0130 0130 0130 0130 0130 0130  .0.0.0.0.0.0.0.0
	0x0060:  0130 0138 0145 0146 0369 7036 0461 7270  .0.8.E.F.ip6.arp
	0x0070:  6100 000c 8001 0000 0078 000e 0654 656d  a........x...Tem
	0x0080:  6e75 7505 6c6f 6361 6c00 0331 3433 0131  nuu.local..143.1
	0x0090:  0331 3638 0331 3932 0769 6e2d 6164 6472  .168.192.in-addr
	0x00a0:  c050 000c 8001 0000 0078 0002 c060 c060  .P.......x...`.`
	0x00b0:  001c 8001 0000 0078 0010 fe80 0000 0000  .......x........
	0x00c0:  0000 005a 2e23 d4d6 79ca c060 0001 8001  ...Z.#..y..`....
	0x00d0:  0000 0078 0004 c0a8 018f c00c 002f 8001  ...x........./..
	0x00e0:  0000 0078 0006 c00c 0002 0008 c06e 002f  ...x.........n./
	0x00f0:  8001 0000 0078 0006 c06e 0002 0008 c060  .....x...n.....`
	0x0100:  002f 8001 0000 0078 0008 c060 0004 4000  ./.....x...`..@.
	0x0110:  0008 0000 2905 a000 0011 9400 1200 0400  ....)...........
	0x0120:  0e00 f322 6d52 000f 9c00 6d52 000f 9c    ..."mR....mR...
13:36:00.760681 IP6 (flowlabel 0xe62da, hlim 255, next-header UDP (17) payload length: 283) fe80::5a:2e23:d4d6:79ca.mdns > ff02::fb.mdns: [udp sum ok] 0*- [0q] 4/0/4 A.C.9.7.6.D.4.D.3.2.E.2.A.5.0.0.0.0.0.0.0.0.0.0.0.0.0.0.0.8.E.F.ip6.arpa. (Cache flush) [2m] PTR Temnuu.local., 143.1.168.192.in-addr.arpa. (Cache flush) [2m] PTR Temnuu.local., Temnuu.local. (Cache flush) [2m] AAAA fe80::5a:2e23:d4d6:79ca, Temnuu.local. (Cache flush) [2m] A 192.168.1.143 ar: A.C.9.7.6.D.4.D.3.2.E.2.A.5.0.0.0.0.0.0.0.0.0.0.0.0.0.0.0.8.E.F.ip6.arpa. (Cache flush) [2m] NSEC, 143.1.168.192.in-addr.arpa. (Cache flush) [2m] NSEC, Temnuu.local. (Cache flush) [2m] NSEC, . OPT UDPsize=1440 (275)
	0x0000:  600e 62da 011b 11ff fe80 0000 0000 0000  `.b.............
	0x0010:  005a 2e23 d4d6 79ca ff02 0000 0000 0000  .Z.#..y.........
	0x0020:  0000 0000 0000 00fb 14e9 14e9 011b e0b9  ................
	0x0030:  0000 8400 0000 0004 0000 0004 0141 0143  .............A.C
	0x0040:  0139 0137 0136 0144 0134 0144 0133 0132  .9.7.6.D.4.D.3.2
	0x0050:  0145 0132 0141 0135 0130 0130 0130 0130  .E.2.A.5.0.0.0.0
	0x0060:  0130 0130 0130 0130 0130 0130 0130 0130  .0.0.0.0.0.0.0.0
	0x0070:  0130 0130 0130 0138 0145 0146 0369 7036  .0.0.0.8.E.F.ip6
	0x0080:  0461 7270 6100 000c 8001 0000 0078 000e  .arpa........x..
	0x0090:  0654 656d 6e75 7505 6c6f 6361 6c00 0331  .Temnuu.local..1
	0x00a0:  3433 0131 0331 3638 0331 3932 0769 6e2d  43.1.168.192.in-
	0x00b0:  6164 6472 c050 000c 8001 0000 0078 0002  addr.P.......x..
	0x00c0:  c060 c060 001c 8001 0000 0078 0010 fe80  .`.`.......x....
	0x00d0:  0000 0000 0000 005a 2e23 d4d6 79ca c060  .......Z.#..y..`
	0x00e0:  0001 8001 0000 0078 0004 c0a8 018f c00c  .......x........
	0x00f0:  002f 8001 0000 0078 0006 c00c 0002 0008  ./.....x........
	0x0100:  c06e 002f 8001 0000 0078 0006 c06e 0002  .n./.....x...n..
	0x0110:  0008 c060 002f 8001 0000 0078 0008 c060  ...`./.....x...`
	0x0120:  0004 4000 0008 0000 2905 a000 0011 9400  ..@.....).......
	0x0130:  1200 0400 0e00 f322 6d52 000f 9c00 6d52  ......."mR....mR
	0x0140:  000f 9c                                  ...
13:36:00.854232 IP (tos 0x0, ttl 4, id 0, offset 0, flags [DF], proto UDP (17), length 360)
    192.168.1.1.48871 > 239.255.255.250.1900: [udp sum ok] UDP, length 332
	0x0000:  4500 0168 0000 4000 0411 c3e1 c0a8 0101  E..h..@.........
	0x0010:  efff fffa bee7 076c 0154 776e 4e4f 5449  .......l.TwnNOTI
	0x0020:  4659 202a 2048 5454 502f 312e 310d 0a48  FY.*.HTTP/1.1..H
	0x0030:  4f53 543a 2032 3339 2e32 3535 2e32 3535  OST:.239.255.255
	0x0040:  2e32 3530 3a31 3930 300d 0a43 4143 4845  .250:1900..CACHE
	0x0050:  2d43 4f4e 5452 4f4c 3a20 6d61 782d 6167  -CONTROL:.max-ag
	0x0060:  653d 3130 300d 0a4c 4f43 4154 494f 4e3a  e=100..LOCATION:
	0x0070:  2068 7474 703a 2f2f 3139 322e 3136 382e  .http://192.168.
	0x0080:  312e 313a 3139 3030 2f69 6764 2e78 6d6c  1.1:1900/igd.xml
	0x0090:  0d0a 4e54 3a20 7572 6e3a 7363 6865 6d61  ..NT:.urn:schema
	0x00a0:  732d 7570 6e70 2d6f 7267 3a64 6576 6963  s-upnp-org:devic
	0x00b0:  653a 5741 4e43 6f6e 6e65 6374 696f 6e44  e:WANConnectionD
	0x00c0:  6576 6963 653a 310d 0a4e 5453 3a20 7373  evice:1..NTS:.ss
	0x00d0:  6470 3a61 6c69 7665 0d0a 5345 5256 4552  dp:alive..SERVER
	0x00e0:  3a20 6970 6f73 2f37 2e30 2055 506e 502f  :.ipos/7.0.UPnP/
	0x00f0:  312e 3020 544c 2d57 5237 3430 4e2f 342e  1.0.TL-WR740N/4.
	0x0100:  300d 0a55 534e 3a20 7575 6964 3a39 6630  0..USN:.uuid:9f0
	0x0110:  3836 3562 332d 6635 6461 2d34 6164 352d  865b3-f5da-4ad5-
	0x0120:  3835 6237 2d37 3430 3436 3337 6664 6633  85b7-7404637fdf3
	0x0130:  373a 3a75 726e 3a73 6368 656d 6173 2d75  7::urn:schemas-u
	0x0140:  706e 702d 6f72 673a 6465 7669 6365 3a57  pnp-org:device:W
	0x0150:  414e 436f 6e6e 6563 7469 6f6e 4465 7669  ANConnectionDevi
	0x0160:  6365 3a31 0d0a 0d0a                      ce:1....
13:36:00.956743 IP (tos 0x0, ttl 4, id 0, offset 0, flags [DF], proto UDP (17), length 354)
    192.168.1.1.48871 > 239.255.255.250.1900: [udp sum ok] UDP, length 326
	0x0000:  4500 0162 0000 4000 0411 c3e7 c0a8 0101  E..b..@.........
	0x0010:  efff fffa bee7 076c 014e 4818 4e4f 5449  .......l.NH.NOTI
	0x0020:  4659 202a 2048 5454 502f 312e 310d 0a48  FY.*.HTTP/1.1..H
	0x0030:  4f53 543a 2032 3339 2e32 3535 2e32 3535  OST:.239.255.255
	0x0040:  2e32 3530 3a31 3930 300d 0a43 4143 4845  .250:1900..CACHE
	0x0050:  2d43 4f4e 5452 4f4c 3a20 6d61 782d 6167  -CONTROL:.max-ag
	0x0060:  653d 3130 300d 0a4c 4f43 4154 494f 4e3a  e=100..LOCATION:
	0x0070:  2068 7474 703a 2f2f 3139 322e 3136 382e  .http://192.168.
	0x0080:  312e 313a 3139 3030 2f69 6764 2e78 6d6c  1.1:1900/igd.xml
	0x0090:  0d0a 4e54 3a20 7572 6e3a 7363 6865 6d61  ..NT:.urn:schema
	0x00a0:  732d 7570 6e70 2d6f 7267 3a73 6572 7669  s-upnp-org:servi
	0x00b0:  6365 3a57 414e 4950 436f 6e6e 6563 7469  ce:WANIPConnecti
	0x00c0:  6f6e 3a31 0d0a 4e54 533a 2073 7364 703a  on:1..NTS:.ssdp:
	0x00d0:  616c 6976 650d 0a53 4552 5645 523a 2069  alive..SERVER:.i
	0x00e0:  706f 732f 372e 3020 5550 6e50 2f31 2e30  pos/7.0.UPnP/1.0
	0x00f0:  2054 4c2d 5752 3734 304e 2f34 2e30 0d0a  .TL-WR740N/4.0..
	0x0100:  5553 4e3a 2075 7569 643a 3966 3038 3635  USN:.uuid:9f0865
	0x0110:  6233 2d66 3564 612d 3461 6435 2d38 3562  b3-f5da-4ad5-85b
	0x0120:  372d 3734 3034 3633 3766 6466 3337 3a3a  7-7404637fdf37::
	0x0130:  7572 6e3a 7363 6865 6d61 732d 7570 6e70  urn:schemas-upnp
	0x0140:  2d6f 7267 3a73 6572 7669 6365 3a57 414e  -org:service:WAN
	0x0150:  4950 436f 6e6e 6563 7469 6f6e 3a31 0d0a  IPConnection:1..
	0x0160:  0d0a                                     ..
13:36:01.058896 IP (tos 0x0, ttl 4, id 0, offset 0, flags [DF], proto UDP (17), length 301)
    192.168.1.1.48871 > 239.255.255.250.1900: [udp sum ok] UDP, length 273
	0x0000:  4500 012d 0000 4000 0411 c41c c0a8 0101  E..-..@.........
	0x0010:  efff fffa bee7 076c 0119 e1a3 4e4f 5449  .......l....NOTI
	0x0020:  4659 202a 2048 5454 502f 312e 310d 0a48  FY.*.HTTP/1.1..H
	0x0030:  4f53 543a 2032 3339 2e32 3535 2e32 3535  OST:.239.255.255
	0x0040:  2e32 3530 3a31 3930 300d 0a43 4143 4845  .250:1900..CACHE
	0x0050:  2d43 4f4e 5452 4f4c 3a20 6d61 782d 6167  -CONTROL:.max-ag
	0x0060:  653d 3130 300d 0a4c 4f43 4154 494f 4e3a  e=100..LOCATION:
	0x0070:  2068 7474 703a 2f2f 3139 322e 3136 382e  .http://192.168.
	0x0080:  312e 313a 3139 3030 2f69 6764 2e78 6d6c  1.1:1900/igd.xml
	0x0090:  0d0a 4e54 3a20 7575 6964 3a35 3635 6161  ..NT:.uuid:565aa
	0x00a0:  3934 392d 3637 6331 2d34 6330 652d 6161  949-67c1-4c0e-aa
	0x00b0:  3866 2d66 3334 3965 3666 3539 3331 310d  8f-f349e6f59311.
	0x00c0:  0a4e 5453 3a20 7373 6470 3a61 6c69 7665  .NTS:.ssdp:alive
	0x00d0:  0d0a 5345 5256 4552 3a20 6970 6f73 2f37  ..SERVER:.ipos/7
	0x00e0:  2e30 2055 506e 502f 312e 3020 544c 2d57  .0.UPnP/1.0.TL-W
	0x00f0:  5237 3430 4e2f 342e 300d 0a55 534e 3a20  R740N/4.0..USN:.
	0x0100:  7575 6964 3a35 3635 6161 3934 392d 3637  uuid:565aa949-67
	0x0110:  6331 2d34 6330 652d 6161 3866 2d66 3334  c1-4c0e-aa8f-f34
	0x0120:  3965 3666 3539 3331 310d 0a0d 0a         9e6f59311....
13:36:01.161456 IP (tos 0x0, ttl 4, id 0, offset 0, flags [DF], proto UDP (17), length 356)
    192.168.1.1.48871 > 239.255.255.250.1900: [udp sum ok] UDP, length 328
	0x0000:  4500 0164 0000 4000 0411 c3e5 c0a8 0101  E..d..@.........
	0x0010:  efff fffa bee7 076c 0150 cb0f 4e4f 5449  .......l.P..NOTI
	0x0020:  4659 202a 2048 5454 502f 312e 310d 0a48  FY.*.HTTP/1.1..H
	0x0030:  4f53 543a 2032 3339 2e32 3535 2e32 3535  OST:.239.255.255
	0x0040:  2e32 3530 3a31 3930 300d 0a43 4143 4845  .250:1900..CACHE
	0x0050:  2d43 4f4e 5452 4f4c 3a20 6d61 782d 6167  -CONTROL:.max-ag
	0x0060:  653d 3130 300d 0a4c 4f43 4154 494f 4e3a  e=100..LOCATION:
	0x0070:  2068 7474 703a 2f2f 3139 322e 3136 382e  .http://192.168.
	0x0080:  312e 313a 3139 3030 2f69 6764 2e78 6d6c  1.1:1900/igd.xml
	0x0090:  0d0a 4e54 3a20 7572 6e3a 7363 6865 6d61  ..NT:.urn:schema
	0x00a0:  732d 7769 6669 616c 6c69 616e 6365 2d6f  s-wifialliance-o
	0x00b0:  7267 3a64 6576 6963 653a 5746 4144 6576  rg:device:WFADev
	0x00c0:  6963 653a 310d 0a4e 5453 3a20 7373 6470  ice:1..NTS:.ssdp
	0x00d0:  3a61 6c69 7665 0d0a 5345 5256 4552 3a20  :alive..SERVER:.
	0x00e0:  6970 6f73 2f37 2e30 2055 506e 502f 312e  ipos/7.0.UPnP/1.
	0x00f0:  3020 544c 2d57 5237 3430 4e2f 342e 300d  0.TL-WR740N/4.0.
	0x0100:  0a55 534e 3a20 7575 6964 3a35 3635 6161  .USN:.uuid:565aa
	0x0110:  3934 392d 3637 6331 2d34 6330 652d 6161  949-67c1-4c0e-aa
	0x0120:  3866 2d66 3334 3965 3666 3539 3331 313a  8f-f349e6f59311:
	0x0130:  3a75 726e 3a73 6368 656d 6173 2d77 6966  :urn:schemas-wif
	0x0140:  6961 6c6c 6961 6e63 652d 6f72 673a 6465  ialliance-org:de
	0x0150:  7669 6365 3a57 4641 4465 7669 6365 3a31  vice:WFADevice:1
	0x0160:  0d0a 0d0a                                ....
13:36:01.264271 IP (tos 0x0, ttl 4, id 0, offset 0, flags [DF], proto UDP (17), length 366)
    192.168.1.1.48871 > 239.255.255.250.1900: [udp sum ok] UDP, length 338
	0x0000:  4500 016e 0000 4000 0411 c3db c0a8 0101  E..n..@.........
	0x0010:  efff fffa bee7 076c 015a eb65 4e4f 5449  .......l.Z.eNOTI
	0x0020:  4659 202a 2048 5454 502f 312e 310d 0a48  FY.*.HTTP/1.1..H
	0x0030:  4f53 543a 2032 3339 2e32 3535 2e32 3535  OST:.239.255.255
	0x0040:  2e32 3530 3a31 3930 300d 0a43 4143 4845  .250:1900..CACHE
	0x0050:  2d43 4f4e 5452 4f4c 3a20 6d61 782d 6167  -CONTROL:.max-ag
	0x0060:  653d 3130 300d 0a4c 4f43 4154 494f 4e3a  e=100..LOCATION:
	0x0070:  2068 7474 703a 2f2f 3139 322e 3136 382e  .http://192.168.
	0x0080:  312e 313a 3139 3030 2f69 6764 2e78 6d6c  1.1:1900/igd.xml
	0x0090:  0d0a 4e54 3a20 7572 6e3a 7363 6865 6d61  ..NT:.urn:schema
	0x00a0:  732d 7769 6669 616c 6c69 616e 6365 2d6f  s-wifialliance-o
	0x00b0:  7267 3a73 6572 7669 6365 3a57 4641 574c  rg:service:WFAWL
	0x00c0:  414e 436f 6e66 6967 3a31 0d0a 4e54 533a  ANConfig:1..NTS:
	0x00d0:  2073 7364 703a 616c 6976 650d 0a53 4552  .ssdp:alive..SER
	0x00e0:  5645 523a 2069 706f 732f 372e 3020 5550  VER:.ipos/7.0.UP
	0x00f0:  6e50 2f31 2e30 2054 4c2d 5752 3734 304e  nP/1.0.TL-WR740N
	0x0100:  2f34 2e30 0d0a 5553 4e3a 2075 7569 643a  /4.0..USN:.uuid:
	0x0110:  3536 3561 6139 3439 2d36 3763 312d 3463  565aa949-67c1-4c
	0x0120:  3065 2d61 6138 662d 6633 3439 6536 6635  0e-aa8f-f349e6f5
	0x0130:  3933 3131 3a3a 7572 6e3a 7363 6865 6d61  9311::urn:schema
	0x0140:  732d 7769 6669 616c 6c69 616e 6365 2d6f  s-wifialliance-o
	0x0150:  7267 3a73 6572 7669 6365 3a57 4641 574c  rg:service:WFAWL
	0x0160:  414e 436f 6e66 6967 3a31 0d0a 0d0a       ANConfig:1....
13:36:01.673270 IP (tos 0x0, ttl 255, id 39446, offset 0, flags [none], proto UDP (17), length 299)
    192.168.1.143.mdns > 224.0.0.251.mdns: [udp sum ok] 0*- [0q] 6/0/2 00:6d:52:00:0f:9c@fe80::26d:52ff:fe00:f9c._apple-mobdev2._tcp.local. (Cache flush) [1h15m] TXT "", _services._dns-sd._udp.local. [1h15m] PTR _apple-mobdev2._tcp.local., 4deb0591._sub._apple-mobdev2._tcp.local. [1h15m] PTR 00:6d:52:00:0f:9c@fe80::26d:52ff:fe00:f9c._apple-mobdev2._tcp.local., 47c90549._sub._apple-mobdev2._tcp.local. [1h15m] PTR 00:6d:52:00:0f:9c@fe80::26d:52ff:fe00:f9c._apple-mobdev2._tcp.local., _apple-mobdev2._tcp.local. [1h15m] PTR 00:6d:52:00:0f:9c@fe80::26d:52ff:fe00:f9c._apple-mobdev2._tcp.local., 00:6d:52:00:0f:9c@fe80::26d:52ff:fe00:f9c._apple-mobdev2._tcp.local. (Cache flush) [2m] SRV Temnuu.local.:32498 0 0 ar: 00:6d:52:00:0f:9c@fe80::26d:52ff:fe00:f9c._apple-mobdev2._tcp.local. (Cache flush) [1h15m] NSEC, . OPT UDPsize=1440 (271)
	0x0000:  4500 012b 9a16 0000 ff11 7d78 c0a8 018f  E..+......}x....
	0x0010:  e000 00fb 14e9 14e9 0117 c68c 0000 8400  ................
	0x0020:  0000 0006 0000 0002 2930 303a 3664 3a35  ........)00:6d:5
	0x0030:  323a 3030 3a30 663a 3963 4066 6538 303a  2:00:0f:9c@fe80:
	0x0040:  3a32 3664 3a35 3266 663a 6665 3030 3a66  :26d:52ff:fe00:f
	0x0050:  3963 0e5f 6170 706c 652d 6d6f 6264 6576  9c._apple-mobdev
	0x0060:  3204 5f74 6370 056c 6f63 616c 0000 1080  2._tcp.local....
	0x0070:  0100 0011 9400 0100 095f 7365 7276 6963  ........._servic
	0x0080:  6573 075f 646e 732d 7364 045f 7564 70c0  es._dns-sd._udp.
	0x0090:  4a00 0c00 0100 0011 9400 02c0 3608 3464  J...........6.4d
	0x00a0:  6562 3035 3931 045f 7375 62c0 3600 0c00  eb0591._sub.6...
	0x00b0:  0100 0011 9400 02c0 0c08 3437 6339 3035  ..........47c905
	0x00c0:  3439 c08a 000c 0001 0000 1194 0002 c00c  49..............
	0x00d0:  c036 000c 0001 0000 1194 0002 c00c c00c  .6..............
	0x00e0:  0021 8001 0000 0078 000f 0000 0000 7ef2  .!.....x......~.
	0x00f0:  0654 656d 6e75 75c0 4ac0 0c00 2f80 0100  .Temnuu.J.../...
	0x0100:  0011 9400 09c0 0c00 0500 0080 0040 0000  .............@..
	0x0110:  2905 a000 0011 9400 1200 0400 0e00 f322  ).............."
	0x0120:  6d52 000f 9c00 6d52 000f 9c              mR....mR...
13:36:01.673788 IP6 (flowlabel 0xe62da, hlim 255, next-header UDP (17) payload length: 279) fe80::5a:2e23:d4d6:79ca.mdns > ff02::fb.mdns: [udp sum ok] 0*- [0q] 6/0/2 00:6d:52:00:0f:9c@fe80::26d:52ff:fe00:f9c._apple-mobdev2._tcp.local. (Cache flush) [1h15m] TXT "", _services._dns-sd._udp.local. [1h15m] PTR _apple-mobdev2._tcp.local., 4deb0591._sub._apple-mobdev2._tcp.local. [1h15m] PTR 00:6d:52:00:0f:9c@fe80::26d:52ff:fe00:f9c._apple-mobdev2._tcp.local., 47c90549._sub._apple-mobdev2._tcp.local. [1h15m] PTR 00:6d:52:00:0f:9c@fe80::26d:52ff:fe00:f9c._apple-mobdev2._tcp.local., _apple-mobdev2._tcp.local. [1h15m] PTR 00:6d:52:00:0f:9c@fe80::26d:52ff:fe00:f9c._apple-mobdev2._tcp.local., 00:6d:52:00:0f:9c@fe80::26d:52ff:fe00:f9c._apple-mobdev2._tcp.local. (Cache flush) [2m] SRV Temnuu.local.:32498 0 0 ar: 00:6d:52:00:0f:9c@fe80::26d:52ff:fe00:f9c._apple-mobdev2._tcp.local. (Cache flush) [1h15m] NSEC, . OPT UDPsize=1440 (271)
	0x0000:  600e 62da 0117 11ff fe80 0000 0000 0000  `.b.............
	0x0010:  005a 2e23 d4d6 79ca ff02 0000 0000 0000  .Z.#..y.........
	0x0020:  0000 0000 0000 00fb 14e9 14e9 0117 ee22  ..............."
	0x0030:  0000 8400 0000 0006 0000 0002 2930 303a  ............)00:
	0x0040:  3664 3a35 323a 3030 3a30 663a 3963 4066  6d:52:00:0f:9c@f
	0x0050:  6538 303a 3a32 3664 3a35 3266 663a 6665  e80::26d:52ff:fe
	0x0060:  3030 3a66 3963 0e5f 6170 706c 652d 6d6f  00:f9c._apple-mo
	0x0070:  6264 6576 3204 5f74 6370 056c 6f63 616c  bdev2._tcp.local
	0x0080:  0000 1080 0100 0011 9400 0100 095f 7365  ............._se
	0x0090:  7276 6963 6573 075f 646e 732d 7364 045f  rvices._dns-sd._
	0x00a0:  7564 70c0 4a00 0c00 0100 0011 9400 02c0  udp.J...........
	0x00b0:  3608 3464 6562 3035 3931 045f 7375 62c0  6.4deb0591._sub.
	0x00c0:  3600 0c00 0100 0011 9400 02c0 0c08 3437  6.............47
	0x00d0:  6339 3035 3439 c08a 000c 0001 0000 1194  c90549..........
	0x00e0:  0002 c00c c036 000c 0001 0000 1194 0002  .....6..........
	0x00f0:  c00c c00c 0021 8001 0000 0078 000f 0000  .....!.....x....
	0x0100:  0000 7ef2 0654 656d 6e75 75c0 4ac0 0c00  ..~..Temnuu.J...
	0x0110:  2f80 0100 0011 9400 09c0 0c00 0500 0080  /...............
	0x0120:  0040 0000 2905 a000 0011 9400 1200 0400  .@..)...........
	0x0130:  0e00 f322 6d52 000f 9c00 6d52 000f 9c    ..."mR....mR...
13:36:02.594702 ARP, Ethernet (len 6), IPv4 (len 4), Request who-has 192.168.1.1 tell 192.168.1.138, length 28
	0x0000:  0001 0800 0604 0001 0026 c77d 5780 c0a8  .........&.}W...
	0x0010:  018a 0000 0000 0000 c0a8 0101            ............
13:36:03.314198 IP6 (hlim 1, next-header UDP (17) payload length: 111) fe80::8d5:2af4:2a36:31e7.dhcpv6-client > ff02::1:2.dhcpv6-server: [udp sum ok] dhcp6 solicit (xid=a4d398 (elapsed-time 0) (client-ID hwaddr/time type 1 time 478640860 60eb69931346) (IA_NA IAID:419440327 T1:0 T2:0) (Client-FQDN) (vendor-class) (option-request DNS-search-list DNS-server vendor-specific-info Client-FQDN))
	0x0000:  6000 0000 006f 1101 fe80 0000 0000 0000  `....o..........
	0x0010:  08d5 2af4 2a36 31e7 ff02 0000 0000 0000  ..*.*61.........
	0x0020:  0000 0000 0001 0002 0222 0223 006f 4448  .........".#.oDH
	0x0030:  01a4 d398 0008 0002 0000 0001 000e 0001  ................
	0x0040:  0001 1c87 7adc 60eb 6993 1346 0003 000c  ....z.`.i..F....
	0x0050:  1900 26c7 0000 0000 0000 0000 0027 0019  ..&..........'..
	0x0060:  0017 d090 d0bb d0b5 d0ba d181 d0b0 d0bd  ................
	0x0070:  d0b4 d180 2dd0 9fd0 9a00 1000 0e00 0001  ....-...........
	0x0080:  3700 084d 5346 5420 352e 3000 0600 0800  7..MSFT.5.0.....
	0x0090:  1800 1700 1100 27                        ......'
13:36:04.335624 IP6 (hlim 1, next-header UDP (17) payload length: 111) fe80::8d5:2af4:2a36:31e7.dhcpv6-client > ff02::1:2.dhcpv6-server: [udp sum ok] dhcp6 solicit (xid=a4d398 (elapsed-time 100) (client-ID hwaddr/time type 1 time 478640860 60eb69931346) (IA_NA IAID:419440327 T1:0 T2:0) (Client-FQDN) (vendor-class) (option-request DNS-search-list DNS-server vendor-specific-info Client-FQDN))
	0x0000:  6000 0000 006f 1101 fe80 0000 0000 0000  `....o..........
	0x0010:  08d5 2af4 2a36 31e7 ff02 0000 0000 0000  ..*.*61.........
	0x0020:  0000 0000 0001 0002 0222 0223 006f 43e4  .........".#.oC.
	0x0030:  01a4 d398 0008 0002 0064 0001 000e 0001  .........d......
	0x0040:  0001 1c87 7adc 60eb 6993 1346 0003 000c  ....z.`.i..F....
	0x0050:  1900 26c7 0000 0000 0000 0000 0027 0019  ..&..........'..
	0x0060:  0017 d090 d0bb d0b5 d0ba d181 d0b0 d0bd  ................
	0x0070:  d0b4 d180 2dd0 9fd0 9a00 1000 0e00 0001  ....-...........
	0x0080:  3700 084d 5346 5420 352e 3000 0600 0800  7..MSFT.5.0.....
	0x0090:  1800 1700 1100 27                        ......'
13:36:04.438230 IP (tos 0x0, ttl 255, id 43517, offset 0, flags [none], proto UDP (17), length 521)
    192.168.1.143.mdns > 224.0.0.251.mdns: [udp sum ok] 0*- [0q] 10/0/5 00:6d:52:00:0f:9c@fe80::26d:52ff:fe00:f9c._apple-mobdev2._tcp.local. (Cache flush) [1h15m] TXT "", _services._dns-sd._udp.local. [1h15m] PTR _apple-mobdev2._tcp.local., 4deb0591._sub._apple-mobdev2._tcp.local. [1h15m] PTR 00:6d:52:00:0f:9c@fe80::26d:52ff:fe00:f9c._apple-mobdev2._tcp.local., 47c90549._sub._apple-mobdev2._tcp.local. [1h15m] PTR 00:6d:52:00:0f:9c@fe80::26d:52ff:fe00:f9c._apple-mobdev2._tcp.local., _apple-mobdev2._tcp.local. [1h15m] PTR 00:6d:52:00:0f:9c@fe80::26d:52ff:fe00:f9c._apple-mobdev2._tcp.local., 00:6d:52:00:0f:9c@fe80::26d:52ff:fe00:f9c._apple-mobdev2._tcp.local. (Cache flush) [2m] SRV Temnuu.local.:32498 0 0, A.C.9.7.6.D.4.D.3.2.E.2.A.5.0.0.0.0.0.0.0.0.0.0.0.0.0.0.0.8.E.F.ip6.arpa. (Cache flush) [2m] PTR Temnuu.local., 143.1.168.192.in-addr.arpa. (Cache flush) [2m] PTR Temnuu.local., Temnuu.local. (Cache flush) [2m] AAAA fe80::5a:2e23:d4d6:79ca, Temnuu.local. (Cache flush) [2m] A 192.168.1.143 ar: 00:6d:52:00:0f:9c@fe80::26d:52ff:fe00:f9c._apple-mobdev2._tcp.local. (Cache flush) [1h15m] NSEC, A.C.9.7.6.D.4.D.3.2.E.2.A.5.0.0.0.0.0.0.0.0.0.0.0.0.0.0.0.8.E.F.ip6.arpa. (Cache flush) [2m] NSEC, 143.1.168.192.in-addr.arpa. (Cache flush) [2m] NSEC, Temnuu.local. (Cache flush) [2m] NSEC, . OPT UDPsize=1440 (493)
	0x0000:  4500 0209 a9fd 0000 ff11 6cb3 c0a8 018f  E.........l.....
	0x0010:  e000 00fb 14e9 14e9 01f5 f26e 0000 8400  ...........n....
	0x0020:  0000 000a 0000 0005 2930 303a 3664 3a35  ........)00:6d:5
	0x0030:  323a 3030 3a30 663a 3963 4066 6538 303a  2:00:0f:9c@fe80:
	0x0040:  3a32 3664 3a35 3266 663a 6665 3030 3a66  :26d:52ff:fe00:f
	0x0050:  3963 0e5f 6170 706c 652d 6d6f 6264 6576  9c._apple-mobdev
	0x0060:  3204 5f74 6370 056c 6f63 616c 0000 1080  2._tcp.local....
	0x0070:  0100 0011 9400 0100 095f 7365 7276 6963  ........._servic
	0x0080:  6573 075f 646e 732d 7364 045f 7564 70c0  es._dns-sd._udp.
	0x0090:  4a00 0c00 0100 0011 9400 02c0 3608 3464  J...........6.4d
	0x00a0:  6562 3035 3931 045f 7375 62c0 3600 0c00  eb0591._sub.6...
	0x00b0:  0100 0011 9400 02c0 0c08 3437 6339 3035  ..........47c905
	0x00c0:  3439 c08a 000c 0001 0000 1194 0002 c00c  49..............
	0x00d0:  c036 000c 0001 0000 1194 0002 c00c c00c  .6..............
	0x00e0:  0021 8001 0000 0078 000f 0000 0000 7ef2  .!.....x......~.
	0x00f0:  0654 656d 6e75 75c0 4a01 4101 4301 3901  .Temnuu.J.A.C.9.
	0x0100:  3701 3601 4401 3401 4401 3301 3201 4501  7.6.D.4.D.3.2.E.
	0x0110:  3201 4101 3501 3001 3001 3001 3001 3001  2.A.5.0.0.0.0.0.
	0x0120:  3001 3001 3001 3001 3001 3001 3001 3001  0.0.0.0.0.0.0.0.
	0x0130:  3001 3001 3801 4501 4603 6970 3604 6172  0.0.8.E.F.ip6.ar
	0x0140:  7061 0000 0c80 0100 0000 7800 02c0 d403  pa........x.....
	0x0150:  3134 3301 3103 3136 3803 3139 3207 696e  143.1.168.192.in
	0x0160:  2d61 6464 72c1 2100 0c80 0100 0000 7800  -addr.!.......x.
	0x0170:  02c0 d4c0 d400 1c80 0100 0000 7800 10fe  ............x...
	0x0180:  8000 0000 0000 0000 5a2e 23d4 d679 cac0  ........Z.#..y..
	0x0190:  d400 0180 0100 0000 7800 04c0 a801 8fc0  ........x.......
	0x01a0:  0c00 2f80 0100 0011 9400 09c0 0c00 0500  ../.............
	0x01b0:  0080 0040 c0dd 002f 8001 0000 0078 0006  ...@.../.....x..
	0x01c0:  c0dd 0002 0008 c133 002f 8001 0000 0078  .......3./.....x
	0x01d0:  0006 c133 0002 0008 c0d4 002f 8001 0000  ...3......./....
	0x01e0:  0078 0008 c0d4 0004 4000 0008 0000 2905  .x......@.....).
	0x01f0:  a000 0011 9400 1200 0400 0e00 f322 6d52  ............."mR
	0x0200:  000f 9c00 6d52 000f 9c                   ....mR...
13:36:04.438905 IP6 (flowlabel 0xe62da, hlim 255, next-header UDP (17) payload length: 501) fe80::5a:2e23:d4d6:79ca.mdns > ff02::fb.mdns: [udp sum ok] 0*- [0q] 10/0/5 00:6d:52:00:0f:9c@fe80::26d:52ff:fe00:f9c._apple-mobdev2._tcp.local. (Cache flush) [1h15m] TXT "", _services._dns-sd._udp.local. [1h15m] PTR _apple-mobdev2._tcp.local., 4deb0591._sub._apple-mobdev2._tcp.local. [1h15m] PTR 00:6d:52:00:0f:9c@fe80::26d:52ff:fe00:f9c._apple-mobdev2._tcp.local., 47c90549._sub._apple-mobdev2._tcp.local. [1h15m] PTR 00:6d:52:00:0f:9c@fe80::26d:52ff:fe00:f9c._apple-mobdev2._tcp.local., _apple-mobdev2._tcp.local. [1h15m] PTR 00:6d:52:00:0f:9c@fe80::26d:52ff:fe00:f9c._apple-mobdev2._tcp.local., 00:6d:52:00:0f:9c@fe80::26d:52ff:fe00:f9c._apple-mobdev2._tcp.local. (Cache flush) [2m] SRV Temnuu.local.:32498 0 0, A.C.9.7.6.D.4.D.3.2.E.2.A.5.0.0.0.0.0.0.0.0.0.0.0.0.0.0.0.8.E.F.ip6.arpa. (Cache flush) [2m] PTR Temnuu.local., 143.1.168.192.in-addr.arpa. (Cache flush) [2m] PTR Temnuu.local., Temnuu.local. (Cache flush) [2m] AAAA fe80::5a:2e23:d4d6:79ca, Temnuu.local. (Cache flush) [2m] A 192.168.1.143 ar: 00:6d:52:00:0f:9c@fe80::26d:52ff:fe00:f9c._apple-mobdev2._tcp.local. (Cache flush) [1h15m] NSEC, A.C.9.7.6.D.4.D.3.2.E.2.A.5.0.0.0.0.0.0.0.0.0.0.0.0.0.0.0.8.E.F.ip6.arpa. (Cache flush) [2m] NSEC, 143.1.168.192.in-addr.arpa. (Cache flush) [2m] NSEC, Temnuu.local. (Cache flush) [2m] NSEC, . OPT UDPsize=1440 (493)
	0x0000:  600e 62da 01f5 11ff fe80 0000 0000 0000  `.b.............
	0x0010:  005a 2e23 d4d6 79ca ff02 0000 0000 0000  .Z.#..y.........
	0x0020:  0000 0000 0000 00fb 14e9 14e9 01f5 1a05  ................
	0x0030:  0000 8400 0000 000a 0000 0005 2930 303a  ............)00:
	0x0040:  3664 3a35 323a 3030 3a30 663a 3963 4066  6d:52:00:0f:9c@f
	0x0050:  6538 303a 3a32 3664 3a35 3266 663a 6665  e80::26d:52ff:fe
	0x0060:  3030 3a66 3963 0e5f 6170 706c 652d 6d6f  00:f9c._apple-mo
	0x0070:  6264 6576 3204 5f74 6370 056c 6f63 616c  bdev2._tcp.local
	0x0080:  0000 1080 0100 0011 9400 0100 095f 7365  ............._se
	0x0090:  7276 6963 6573 075f 646e 732d 7364 045f  rvices._dns-sd._
	0x00a0:  7564 70c0 4a00 0c00 0100 0011 9400 02c0  udp.J...........
	0x00b0:  3608 3464 6562 3035 3931 045f 7375 62c0  6.4deb0591._sub.
	0x00c0:  3600 0c00 0100 0011 9400 02c0 0c08 3437  6.............47
	0x00d0:  6339 3035 3439 c08a 000c 0001 0000 1194  c90549..........
	0x00e0:  0002 c00c c036 000c 0001 0000 1194 0002  .....6..........
	0x00f0:  c00c c00c 0021 8001 0000 0078 000f 0000  .....!.....x....
	0x0100:  0000 7ef2 0654 656d 6e75 75c0 4a01 4101  ..~..Temnuu.J.A.
	0x0110:  4301 3901 3701 3601 4401 3401 4401 3301  C.9.7.6.D.4.D.3.
	0x0120:  3201 4501 3201 4101 3501 3001 3001 3001  2.E.2.A.5.0.0.0.
	0x0130:  3001 3001 3001 3001 3001 3001 3001 3001  0.0.0.0.0.0.0.0.
	0x0140:  3001 3001 3001 3001 3801 4501 4603 6970  0.0.0.0.8.E.F.ip
	0x0150:  3604 6172 7061 0000 0c80 0100 0000 7800  6.arpa........x.
	0x0160:  02c0 d403 3134 3301 3103 3136 3803 3139  ....143.1.168.19
	0x0170:  3207 696e 2d61 6464 72c1 2100 0c80 0100  2.in-addr.!.....
	0x0180:  0000 7800 02c0 d4c0 d400 1c80 0100 0000  ..x.............
	0x0190:  7800 10fe 8000 0000 0000 0000 5a2e 23d4  x...........Z.#.
	0x01a0:  d679 cac0 d400 0180 0100 0000 7800 04c0  .y..........x...
	0x01b0:  a801 8fc0 0c00 2f80 0100 0011 9400 09c0  ....../.........
	0x01c0:  0c00 0500 0080 0040 c0dd 002f 8001 0000  .......@.../....
	0x01d0:  0078 0006 c0dd 0002 0008 c133 002f 8001  .x.........3./..
	0x01e0:  0000 0078 0006 c133 0002 0008 c0d4 002f  ...x...3......./
	0x01f0:  8001 0000 0078 0008 c0d4 0004 4000 0008  .....x......@...
	0x0200:  0000 2905 a000 0011 9400 1200 0400 0e00  ..).............
	0x0210:  f322 6d52 000f 9c00 6d52 000f 9c         ."mR....mR...
13:36:04.439647 ARP, Ethernet (len 6), IPv4 (len 4), Request who-has 192.168.1.1 tell 192.168.1.118, length 28
	0x0000:  0001 0800 0604 0001 0024 d742 6fcc c0a8  .........$.Bo...
	0x0010:  0176 0000 0000 0000 c0a8 0101            .v..........
13:36:06.178586 IP6 (flowlabel 0x3e6da, hlim 255, next-header ICMPv6 (58) payload length: 16) fe80::5a:2e23:d4d6:79ca > ip6-allrouters: [icmp6 sum ok] ICMP6, router solicitation, length 16
	  source link-address option (1), length 8 (1): 00:6d:52:00:0f:9c
	    0x0000:  006d 5200 0f9c
	0x0000:  6003 e6da 0010 3aff fe80 0000 0000 0000  `.....:.........
	0x0010:  005a 2e23 d4d6 79ca ff02 0000 0000 0000  .Z.#..y.........
	0x0020:  0000 0000 0000 0002 8500 9d06 0000 0000  ................
	0x0030:  0101 006d 5200 0f9c                      ...mR...
13:36:06.383502 IP6 (hlim 1, next-header UDP (17) payload length: 111) fe80::8d5:2af4:2a36:31e7.dhcpv6-client > ff02::1:2.dhcpv6-server: [udp sum ok] dhcp6 solicit (xid=a4d398 (elapsed-time 300) (client-ID hwaddr/time type 1 time 478640860 60eb69931346) (IA_NA IAID:419440327 T1:0 T2:0) (Client-FQDN) (vendor-class) (option-request DNS-search-list DNS-server vendor-specific-info Client-FQDN))
	0x0000:  6000 0000 006f 1101 fe80 0000 0000 0000  `....o..........
	0x0010:  08d5 2af4 2a36 31e7 ff02 0000 0000 0000  ..*.*61.........
	0x0020:  0000 0000 0001 0002 0222 0223 006f 431c  .........".#.oC.
	0x0030:  01a4 d398 0008 0002 012c 0001 000e 0001  .........,......
	0x0040:  0001 1c87 7adc 60eb 6993 1346 0003 000c  ....z.`.i..F....
	0x0050:  1900 26c7 0000 0000 0000 0000 0027 0019  ..&..........'..
	0x0060:  0017 d090 d0bb d0b5 d0ba d181 d0b0 d0bd  ................
	0x0070:  d0b4 d180 2dd0 9fd0 9a00 1000 0e00 0001  ....-...........
	0x0080:  3700 084d 5346 5420 352e 3000 0600 0800  7..MSFT.5.0.....
	0x0090:  1800 1700 1100 27                        ......'
